:020000040800F2
:100000000002001039570008118A000859870008BB
:1000100095870008D18700080D88000800000000BF
:100020000000000000000000000000007D9F0008AC
:100030003189000800000000A1890008419F0008E4
:10004000D9560008D9560008D9560008D9560008D4
:10005000D9560008D9560008D9560008D9560008C4
:10006000D9560008D9560008D9560008D9560008B4
:1000700095960008D956000859960008D9560008E8
:10008000DD500008D9560008D9560008D956000896
:10009000D9560008D9560008D9560008D956000884
:1000A000D9560008D9560008D9560008D956000874
:1000B000D9560008D9560008D9560008D956000864
:1000C000D9560008D9560008D9560008D956000854
:1000D000D9560008A5950008E19500081D9600086E
:1000E000D9560008D9560008D9560008D956000834
:1000F000D9560008D9560008D9560008D956000824
:10010000D9560008FDA20008D9560008D9560008A3
:10011000D9560008D9560008D9560008D956000803
:10012000D9560008D9560008D9560008C1A20008BF
:10013000D9560008D9560008D9560008D9560008E3
:10014000D9560008D9560008D9560008D9560008D3
:10015000D9560008D9560008D9560008D9560008C3
:10016000D9560008D9560008D9560008D9560008B3
:10017000D9560008D9560008D9560008D9560008A3
:10018000D9560008D956000808B5062000F090FEA0
:10019000012007F0D3FE00BF80B514460A4A156857
:1001A000064684B00F46E86854B1084D1A4608491F
:1001B000009733460195029400F05CF9FFF7E4FFE5
:1001C000044D2C46F2E700BFB0B1010810C0010891
:1001D00020C0010804B5010808B513460022FFF746
:1001E000DBFF00BF30B405460C461346022029460B
:1001F000224630BC07F0A0BE42F68D01C0F60001D9
:1002000000F04CB908B5838903F400731BB213B92D
:1002100060300BF031F8002008BD00BF08B58389BD
:1002200003F400731BB213B960300AF0EBFF002037
:1002300008BD00BF002310B504468181C281036060
:10024000436083608367036143618361194600F102
:100250007000082200F0D6FD40F69D73C0F6000342
:10026000636240F6CD73C0F60003A36241F215034A
:10027000C0F60003E36241F24D03C0F600032462BE
:10028000236310BD70B5CD010E4605F10C0100F0E1
:10029000A7F9044640B100F10C00002184E84200B7
:1002A000A0602A4600F0AEFD204670BD4BF2B013B0
:1002B000C0F601031868FFF79FBF00BF40F6440077
:1002C000C1F200000AF09EBF40F64400C1F20000F7
:1002D0000AF0D2BF01480AF095BF00BF54080010D1
:1002E00001480AF0C9BF00BF5408001070B50446A9
:1002F000FFF7F0FFA569002D2CD1184B1B689C421D
:1003000005D00123A361BDE87040FFF7E9BF144B9E
:10031000E5630126236225646564A661204600F03A
:1003200021F86060204600F01DF8A060204600F033
:1003300019F80421E0602A466068FFF77BFFA06897
:1003400008213246FFF776FFE06812210222FFF70C
:1003500071FFA661BDE87040FFF7C2BFB0B10108F0
:10036000F901000870B582B001A9064601200AF023
:10037000A5FFFFF7A3FF284B1D68AB69002B35D005
:100380003C356B68AC68013B04D52BE0013B803405
:100390005A1C27D0B4F90C20002AF7D14FF6FF736E
:1003A0000025E3810123A381A56725666566A5660F
:1003B000E566FFF789FF01A901980AF07FFF256034
:1003C000A560656025616561A56104F1700029463D
:1003D000082200F017FD6563A563A564E564204667
:1003E00002B070BD2C682CB12546CAE72846FFF73D
:1003F0007DFFC5E730460421FFF744FF044628602F
:100400000028F1D1FFF760FF019801A90AF056FF1B
:100410000C233360E3E700BFB0B1010808B5FFF774
:100420004DFF07F0ADFD40F21D21C0F60001BDE813
:10043000084000F033B800BF08B507F0A1FD40F256
:100440000521C0F6000100F029F8BDE80840FFF7DB
:100450003BBF00BF0CB410B582B004AC54F8042B01
:100460002346019401F040FA02B0BDE8104002B00A
:10047000704700BF0EB430B582B005AB054653F8E7
:10048000044B019307F07CFD29462246019B01F0B5
:100490002BFA02B0BDE8304003B070472DE9F041BF
:1004A00010F13C06884619D000277568B468013DF4
:1004B0000ED4A389013D43B1012B06D9B4F90E3006
:1004C0000133204601D0C047074380346B1CF0D174
:1004D0003668002EE9D13846BDE8F0813746384607
:1004E000BDE8F0812DE9F84310F13C0680468946CD
:1004F0001AD000277568B468013D0FD4A389013D67
:100500004BB1012B07D9B4F90E30013321464046D7
:1005100001D0C847074380346A1CEFD13668002EEB
:10052000E8D13846BDE8F88337463846BDE8F88359
:10053000F0B4124EB3685F6827F003070F2FD4BFE3
:10054000002101213A46022506EB8504E3689C421E
:1005500007D05868DB6820F0030001319C42024458
:10056000F7D10235B5F5807FEED1054B186859609B
:10057000801AD8611A625F62F0BC7047780200107E
:1005800068080010F8B540F668040646C1F2000499
:1005900008460F4607F0F0FCFFF7CAFF0FCC3546C0
:1005A0000FC50FCC0FC594E8030085E8030038465B
:1005B00007F0E4FC3046F8BD10B5044607F0E0FC57
:1005C0002146BDE8104000F00BB800BF10B504464E
:1005D00007F0D6FC2146BDE8104002F085BB00BF05
:1005E0002DE9F04F01F10B05162D83B006462CD9ED
:1005F00025F00705EB0F8D422CBF194643F0010192
:1006000000292BD1304607F0B7FCB5F5FC7F29D285
:10061000B94F4FEAD50C07EBCC03DC689C4200F0E5
:10062000EE816368E268A16823F00303E318CA60FF
:100630005868916040F001005860304607F09EFC19
:100640000834204603B0BDE8F08F002310258D420A
:100650002CBF194643F001010029D3D00C2333608D
:100660000024EEE75FEA552C04BF4FEAD50C4FEAB1
:100670004C0140F08480A04F07EB8101CC68A1427F
:1006800006D10DE0002B80F23B81E468A14207D047
:10069000626822F00302531B0F2BF3DD0CF1FF3CC9
:1006A0000CF1010C944B3C6903F1080E744508BF32
:1006B000D3F8049022D0616821F003014A1B0F2A6D
:1006C00000F36A81002AC3F814E0C3F810E061DA8D
:1006D000B1F5007F80F03681CA0803EBC2014FF00C
:1006E0000109921009FA02F95A688868E16049EA3A
:1006F0000209A060C3F804908C60C46001204FEA36
:10070000AC0300FA03F048454ED819EA000F07D1B0
:100710002CF0030C400019EA000F0CF1040CF9D086
:1007200007EBCC094C46E046E3689C4207D146E122
:10073000002A80F26E81DB689C4200F0408159689B
:1007400021F003014A1B0F2AF2DD1C465919D86813
:1007500054F808CF8A5045F0010542F00102CCF868
:100760000C00C0F808C05D6079613961C1F80CE027
:10077000C1F808E04A60304607F000FC61E7BCF1D0
:10078000040F00F2CB804FEA951C0CF1380C4FEAB5
:100790004C0170E7611830464B6843F001034B6031
:1007A00007F0ECFB08344CE7BC68636823F00309EE
:1007B0004D4504D8C5EB09030F2B00F38F80DFF8FC
:1007C0003CA1D7F80834DAF80010013329441BBFE4
:1007D00001F20F4121F47F7B01F1100B2BF0030B91
:1007E00004EB090230465946019207F0ABFBB0F129
:1007F000FF3F8046019A00F05381824200F21F8140
:10080000DAF8043042455B44CAF8043000F0518104
:10081000D7F8081401310DBF374BC2EB08029B1803
:10082000C3F8088418BFCAF8043018F007021CBFC8
:10083000C2F10803984408EB0B0314BFC2F58162B0
:100840004FF480629B059B0DC3EB020B304659466B
:1008500007F078FB431C00F03881C8EB00025A44D3
:1008600042F00102DAF80430C7F808805B44BC4269
:10087000CAF80430C8F8042015D0B9F10F0F40F2BF
:10088000FE806268A9F10C0121F00701601802F0F6
:10089000010E41EA0E0E05220F29C4F804E0426061
:1008A000826000F21681DAF82C20BC68934284BF83
:1008B000124AD362DAF83020934284BF0F4A13639E
:1008C000626822F003029542C5EB020301D80F2BA8
:1008D00004DC304607F052FB0024B2E6621943F014
:1008E000010345F00105656030465360BA6007F0CA
:1008F00045FB0834A5E600BF78020010640800102C
:10090000A218E3685068A16840F001005060CB6015
:100910009960304607F032FB083492E6BCF1140FC0
:100920009CBF0CF15B0C4FEA4C017FF6A4AEBCF10E
:10093000540F00F28D804FEA153C0CF16E0C4FEA1B
:100940004C0198E64B0A042B72D9142B9CBF03F17F
:100950005B094FEA490008D9542B00F2C2804FEAE4
:10096000113909F16E094FEA490007EB8000DFF801
:10097000B4818368834275D05A6822F003029142A1
:1009800002D29B689842F7D1D968D7F80490E16009
:10099000A360DC608C60B1E6611942F0010045F0B3
:1009A00001056560596119614860C1F80CE0C1F842
:1009B00008E08A50304607F0E1FA083441E608F1D1
:1009C0000108083418F0030F7FF4AEAE4B461CF05C
:1009D000030FA3F108020CF1FF3C00F09A801B68A2
:1009E0009342F4D07B68400098423FF6DDAE002889
:1009F0003FF4DAAE034200F09180C44690E604F181
:100A000008036469A34208BF0CF1020C3FF44AAE2C
:100A100007E659181C464868DB6854F8082F40F070
:100A200001004860D3609A60304607F0A7FA08E6F4
:100A30004FEA911909F138094FEA490095E7BC429C
:100A40003FF4DEAE374B9C68626822F003023AE75F
:100A5000BCF5AA7F19D84FEAD53C0CF1770C4FEAC8
:100A60004C0108E6D8F804204FEAA909012101FA4F
:100A700009F141EA0209C8F80490194687E7012301
:100A8000C8F80430444600221DE740F254539C4508
:100A90000BD84FEA954C0CF17C0C4FEA4C01EAE57F
:100AA000BC68626822F003020DE7FC214FF07E0C67
:100AB000E1E59105890D00297FF4AAAEBA680BEB38
:100AC000090141F001015160EDE601224FF0000BF8
:100AD000C8E6304604F1080102F006F9124B5B68E3
:100AE000E1E6B3F5AA7F06D84FEAD13909F17709D3
:100AF0004FEA490039E740F25452FC2093424FF04C
:100B00007E099EBF4FEA914909F17C094FEA4900ED
:100B10002BE77B6823EA00037B6064E7400008F171
:100B2000040867E77802001064080010830770B4B7
:100B3000C9B240D0541E002A3FD003788B4221D046
:100B4000431C04E004B30278013C8A421AD013F03B
:100B5000030F184603F10103F4D1032C16D8651EC8
:100B600094B103788B420DD0421C002302E004783C
:100B70008C4207D09D42104603F1010302F10102AD
:100B8000F5D1002070BC70472046FBE741EA012602
:100B900046EA06460246043013687340A3F1013565
:100BA00025EA030313F0803F03D1043C032CF1D862
:100BB000D5E71046D3E71446CFE71046E2E700BF7B
:100BC000032A70B422D941EA00039B0713D00578A9
:100BD0000C78013A0023A54206D01BE010F8015F13
:100BE00011F8014FA54215D1934203F10103F5D14C
:100BF000002070BC70470D6806680C46034604313F
:100C00000430AE4208D1043A032AF4D8002ADED1D7
:100C10001046EEE7281BECE721461846002AD6D1FD
:100C2000F6E700BF0F2AF0B43FD941EA00039B0763
:100C30003DD10C460346154626681E6066685E6018
:100C4000A6689E60E668103DDE60103410330F2DFC
:100C5000F2D8A2F1100525F00F0502F00F041035AF
:100C6000032C00EB0503294423D9043C4FEA940CE0
:100C700001EB8C070C4604371D4654F8046BBC424C
:100C800045F8046BF9D10CF10104A40002F0030251
:100C900009191B193AB101399A1811F8014F03F8D3
:100CA000014B9342F9D1F0BC70470346F2E703468B
:100CB000F1E72246EEE700BF8842F0B411D98C1864
:100CC000A0420ED28518531E4AB121462A4611F879
:100CD000014D013BB3F1FF3F02F8014DF7D1F0BCEC
:100CE00070470F2A3FD941EA00039B073DD10C46CC
:100CF0000346154626681E6066685E60A6689E60AC
:100D0000E668103DDE60103410330F2DF2D8A2F1EA
:100D1000100525F00F0502F00F041035032C00EB31
:100D20000503294423D9043C4FEA940C01EB8C07BA
:100D30000C4604371D4654F8046BBC4245F8046B5E
:100D4000F9D10CF10104A40002F0030209191B19E6
:100D5000002AC4D001399A1811F8014F03F8014B49
:100D60009342F9D1BBE70346F2E70346F2E7224696
:100D7000EEE700BF531E70B40446C018451C15F0C2
:100D8000030FC9B23BD0FAB1E25C8A421DD00246E1
:100D900005E0E3B112F8014D013B8C4215D001385A
:100DA00012F0030FF5D1032B13D85A1E7BB1037831
:100DB0008B420AD0431E03E00478013A8C4204D0EF
:100DC0001846013B002AF7D1104670BC7047184600
:100DD000FBE741EA012646EA0646C21E1046043AEF
:100DE00004687440A4F1013525EA040414F0803F3E
:100DF00003D1043B032B1046F0D80330D5E713464C
:100E0000D1E700BF70B48407034642D0541E002AC5
:100E10003DD0CEB203E0621E002C38D0144603F859
:100E2000016B9A071D46F6D1032C29D9CAB20F2CA3
:100E300042EA022242EA024284BF2B46264611D9E8
:100E4000103E1A605A609A60DA6010330F2EF7D89D
:100E5000A4F1100323F00F0304F00F041033032C4C
:100E60001D440DD92E462346043B032B46F8042B84
:100E7000FAD8231F23F00303043304F00304ED180E
:100E80002CB1C9B22C1905F8011BA542FBD170BCCD
:100E9000704705461446C7E738B50C46054607F0C7
:100EA0009BF8224601462846BDE8384007F08CB83A
:100EB00010B5044607F064F82146BDE81040FFF77E
:100EC000EBBF00BF38B50C460968054609B1FFF70E
:100ED000F9FF28462146BDE8384001F005BF00BFB4
:100EE0002D4B1B68984270B5054654D0C369EBB1D1
:100EF000DA68B2B100231E4652F8231041B10C68E3
:100F0000284601F0F1FE2146002CF8D1EB69DA68A1
:100F10000136202E3346EFD12846114601F0E4FE7B
:100F2000EB69196811B1284601F0DEFE696911B15B
:100F3000284601F0D9FEE96911B1284601F0D4FE36
:100F4000296B11B1284601F0CFFE696B11B128461B
:100F500001F0CAFEA96B11B1284601F0C5FEE96C8B
:100F600011B1284601F0C0FEA96C11B1284601F06C
:100F7000BBFEE96A11B1284601F0B6FEAB6953B178
:100F80002B6A0BB128469847E96B21B12846BDE88A
:100F90007040FFF797BF70BD2402001010B50C46DB
:100FA000B1F90E1007F07CF9002807DBD4E916230D
:100FB000121843EBE073C4E9162310BDA38923F490
:100FC0008053A38110BD00BF00207047F0B50C46D0
:100FD000898901F4807C0FFA8CFC83B007461646A1
:100FE0001D46BCF1000F08D00223B4F90E10009387
:100FF0000022002307F0FEF8A18921F48051A1818D
:10100000B4F90E10384632462B4603B0BDE8F04026
:1010100007F09AB910B582B00C460093B1F90E10E2
:10102000D31707F0E7F8A389B1F1FF3F08BFB0F18C
:10103000FF3F04BF23F48053A38104D0C4E9160109
:1010400043F48053A38102B010BD00BFB1F90E106C
:1010500006F09CBFC9B2F0B400294BD082070FD074
:101060000378002B71D0994242D0431C05E013F85D
:10107000012B002A3BD091423AD09A071846F6D16C
:101080000368A3F1013222EA030241EA012712F0C8
:10109000803F47EA07471CD17B40A3F1013222EA97
:1010A000030313F0803F14D1021D02E014F0803FCF
:1010B0000FD1104652F8043BA3F1013687EA03042E
:1010C00026EA0303A4F1013513F0803F25EA040466
:1010D000ECD00378002B38D0994209D0431C01E0B2
:1010E000914205D0184613F8012B002AF8D110467A
:1010F000F0BC704783070BD00378002BF8D0431C5B
:1011000003E002780133002AF2D099071846F8D19B
:101110000368A3F1013222EA030313F0803F0AD1EE
:10112000021D104652F8041BA1F1013424EA01010A
:1011300011F0803FF5D00378002BD9D0431C18461E
:1011400001330278002AFAD1D2E71846D0E700BF6F
:1011500040EA010C1CF0070F40F02380BDF1100D98
:10116000CDE90245CDE900676FF000064FF00007BA
:10117000F0E80223F1E80245A24282FA46FCA7FA0F
:1011800086FC08BFBCF1000F40F0ED80AB4283FA53
:1011900046FCA7FA86FC08BFBCF1000F40F0DF80D8
:1011A000E6E710F0030C00F0278020F0030050F871
:1011B000042B5FEACC7C00F00B8080F0128011F8E9
:1011C00001CB5FFA92F3B3EB0C0C40F013808BB1C0
:1011D00011F801CB5FFAA2F3B3EB0C0C40F00A80DC
:1011E00043B111F801CB5FFAB2F3B3EB0C0C40F052
:1011F00001800BB960467047BDF1100DCDE9024585
:10120000CDE900676FF000064FF0000711F0030C06
:1012100040F0318010F0040F00F00E8050F8042BE5
:1012200051F8044BA24282FA46FCA7FA86FC08BF9A
:10123000BCF1000F40F0978011F0040F3FF498AF1D
:1012400051F8045BF0E80223AA4282FA46FCA7FAAE
:1012500086FC08BFBCF1000F40F07D80F1E802453C
:10126000A34283FA46FCA7FA86FC08BFBCF1000F34
:1012700040F06D80E6E721F00301BCF1020F00F0C1
:10128000228080F2408051F8045B00BF50F8043B9C
:101290004FEA152583FA46FCA7FA86FCB7EB0C2F1C
:1012A00003EA162208BFAA4240F0558051F8045BB9
:1012B000BCF1000F82EA03034FEA056208BF9342C4
:1012C00040F04180E2E751F8045B00BF50F8043B76
:1012D0004FEA154583FA46FCA7FA86FCB7EB0C4F9C
:1012E00003EA164208BFAA4240F0358051F8045B79
:1012F000BCF1000F82EA03034FEA054208BF9342A4
:1013000040F02180E2E751F8045B00BF50F8043B55
:101310004FEA156583FA46FCA7FA86FCB7EB0C6F1B
:1013200003EA166208BFAA4240F0158051F8045B38
:10133000BCF1000F82EA03034FEA052208BF934283
:1013400040F00180E2E719BA12BA00F00EB819BAFB
:1013500022BA00F00AB811BA2ABA00F006B819BACF
:101360002ABA00F002B811BA22BA9CFA8CF0DDE970
:101370000067DDE902451DF1100D38B1B0FA80F0CB
:10138000C0F1180021FA00F122FA00F20120914286
:1013900098BF8041704700BF80EA0102844612F086
:1013A000030F4FD111F0030F32D14DF8044D11F05E
:1013B000040F51F8043B0BD0A3F101329A4312F011
:1013C000803F04BF4CF8043B51F8043B16D100BFEA
:1013D00051F8044BA3F101329A4312F0803FA4F17B
:1013E00001320BD14CF8043BA24312F0803F04BF02
:1013F00051F8043B4CF8044BEAD023460CF8013B6F
:1014000013F0FF0F4FEA3323F8D15DF8044B704718
:1014100011F0010F06D011F8012B0CF8012B002A56
:1014200008BF704711F0020FBFD031F8022B12F045
:10143000FF0F16BF2CF8022B8CF8002012F47F4F00
:10144000B3D1704711F8012B0CF8012B002AF9D108
:10145000704700BF10B504468E2900F2A381DFE873
:1014600011F09F019D019B01990197019501930145
:1014700091018F018D018B010B010901070105010C
:10148000A10103010101FF00FD00FB00F900F700CD
:10149000F500F300F100EF00ED00EB00E900E700DC
:1014A000E500E300E100DF00DD00DB00A101A101B8
:1014B000A101A101A101A101A101A101D900D700B0
:1014C000A101A101A101A101A101A101A101A1010C
:1014D000A101A101A101A101A101D500A101D30098
:1014E000D100A101A101A101CF00A101A101A10190
:1014F000CD00A101A101CB00A101A101C900A10161
:10150000A101A101A101A101A101A101A101A101CB
:10151000A101C700A101C500C300C100A101A10133
:10152000BF00A101A101A101A101A101A101A1018E
:10153000A101A101BD00BB00B900B700B500A10128
:10154000B300B100AF00AD00AB00A900A700A5003B
:10155000A300A1009F009D009B00A101A101A1018A
:1015600099009700A101A101A101A101A10195008C
:10157000A101A101A101A101A101930091008F008E
:101580003E4810BD3E4810BD3E4810BD3E4810BD0F
:101590003E4810BD3E4810BD3E4810BD3E4810BDFF
:1015A0003E4810BD3E4810BD3E4810BD3E4810BDEF
:1015B0003E4810BD3E4810BD3E4810BD3E4810BDDF
:1015C0003E4810BD3E4810BD3E4810BD3E4810BDCF
:1015D0003E4810BD3E4810BD3E4810BD3E4810BDBF
:1015E0003E4810BD3E4810BD3E4810BD3E4810BDAF
:1015F0003E4810BD3E4810BD3E4810BD3E4810BD9F
:101600003E4810BD3E4810BD3E4810BD3E4810BD8E
:101610003E4810BD3E4810BD3E4810BD3E4810BD7E
:101620003E4810BD3E4810BD3E4810BD3E4810BD6E
:101630003E4810BD3E4810BD3E4810BD3E4810BD5E
:101640003E4810BD3E4810BD3E4810BD3E4810BD4E
:101650003E4810BD3E4810BD3E4810BD3E4810BD3E
:101660003E4810BD3E4810BD3E4810BD3E4810BD2E
:101670003E4810BD3E4810BD3E4810BD24C601087E
:101680000CC60108F8C5010800C30108C4C501085B
:10169000DCC5010838C401085CC6010830C1010876
:1016A000F8C0010800C20108D4C20108F0C1010855
:1016B00070C6010844C20108B4C30108A0C50108EE
:1016C00088C5010874C501085CC501083CC501084E
:1016D0001CC50108ECC40108D0C4010838C60108C3
:1016E000B8C401089CC4010888C401086CC401087E
:1016F00060C401084CC4010828C4010810C40108D2
:10170000FCC30108E4C30108D4C30108CCC3010829
:10171000A8C3010894C3010878C3010864C3010881
:1017200054C3010848C3010838C3010820C3010895
:1017300010C30108E8C20108C4C20108B4C201080C
:101740009CC2010888C2010868C2010830C20108B1
:1017500020C20108E0C10108D0C10108BCC10108D4
:10176000B0C1010898C101088CC1010878C1010805
:1017700064C1010850C10108114810BD114810BDD5
:10178000114810BD114810BD114810BD114810BDC1
:10179000114810BD114810BD114810BD114810BDB1
:1017A000114810BD08461146002B14BF1A462246A8
:1017B00000F05AF80D4B002808BF184610BD00BFB6
:1017C00024C1010814C10108E4C00108D0C0010807
:1017D000B4C00108A8C0010890C0010880C0010879
:1017E00064C0010858C0010850C0010804B50108D0
:1017F00010B5044606F0C4FB002221461346BDE89E
:101800001040FFF727BE00BF20F0030110F00300D7
:10181000C0F1000051F8043B00F1040C4FEACC0C7D
:101820006FF000021CBF22FA0CF213434FF0010CC0
:101830004CEA0C2C4CEA0C4CA3EB0C0222EA0302FF
:1018400012EACC1204BF51F8043B0430F4D013F078
:10185000FF0F1FBF013013F47F4F013013F47F0FD0
:1018600018BF0130704700BF0020704793682DE912
:10187000F047914607460E4673B38C6F14F4005F31
:101880002ED0126802F1080A5AF8042C5AF8085CA3
:101890005FEA920816D0043D002401E0A0450FD075
:1018A000384655F8041F324601F014F90134431C40
:1018B000F4D10023C9F80830C9F80430BDE8F08736
:1018C000D9F80830A3EB8803C9F808300AF1080AF0
:1018D000002BD9D11846ECE753601846BDE8F087D5
:1018E00001F0CAFAE5E700BF2DE9F04FAFB01D46A1
:1018F000884614460793049018B18369002B00F0C2
:101900007C81A74B984500F07E81A64B984500F05E
:101910006E85A54B984502BFA44B1B68D3F80C807D
:10192000012010A909F0CAFCB8F80C2002F40073D9
:101930001BB2002B00F0258102F400531BB24BB9FF
:10194000D8F8783042F4005223F40053A8F80C2061
:10195000C8F8783002F008031BB2002B00F0ED80CD
:10196000D8F81030002B00F0E88002F01A030A2BA0
:1019700000F0F08000231EA90DF1770A8C4601913A
:101980000B9311911393129300202346CAEB01018C
:10199000CDF80880CDF800A003900D9164469846DC
:1019A00098F80030002B18BF252B00F04F8408F169
:1019B0000102154601322B78252B18BF002BF8D1D8
:1019C000B5EB08060FD0129A1399C4F800800132C3
:1019D000891966600834072A1391129200F3D8809F
:1019E000039A921903922B78002B00F06F85002345
:1019F000194605F101088DF83B304FF0FF3B6B783D
:101A000006910D4608F10108A3F12002582A00F2C0
:101A1000D081DFE812F0F802CE01CE01C702CE017C
:101A2000CE01CE01CE01CE01CE01CC02DB02CE0131
:101A300011014702CE016F02740274027402740233
:101A400074027402740274027402CE01CE01CE01DB
:101A5000CE01CE01CE01CE01CE01CE01CE01850256
:101A6000CE01CE01CE01CE01CE01CE01CE01CE01FE
:101A7000CE01CE017400CE01CE01CE01CE01CE0149
:101A80005900CE01CE019E02CE01CE01CE01CE0183
:101A9000CE01CE01CE01CE01CE01CE01B502FF01B5
:101AA000CE01CE01CE011E02FF01CE01CE012302E6
:101AB000CE0130027600DF024202CE01FF02CE01EB
:101AC0005B00CE01CE01160145F01005AE06DDF833
:101AD0001CA000F18F81E80600F1C782690640F181
:101AE000C482BAF80060002756EA07000AF1040A27
:101AF0000CBF00220122CDF81CA00123BDE045F05F
:101B0000100515F02003DDF81CA040F0638115F0EE
:101B1000100140F0B78215F0400300F0B382BAF82C
:101B20000060002756EA07000AF1040A0CBF0022F1
:101B30000122CDF81CA00B469FE00498414600F01E
:101B40008FFD002864D1B8F80C2002F01A030A2B8C
:101B50007FF410AFB8F90E30002BFFF60BAF02F494
:101B600000731BB2002B00F0958410A9109809F0A7
:101B7000A5FB0498414622462B4600F0F1FC039059
:101B800037E008F1600009F03DFBB8F80C20D3E61F
:101B90000498029911AAFFF769FE88B91EAC1FE7E5
:101BA00090B1010870B1010850B10108B0B101084D
:101BB0000498029911AAFFF759FE002800F03C830F
:101BC000DDF80880B8F80C3003F400731BB2002B6A
:101BD00000F0C083109810A909F070FBB8F80C3021
:101BE000039803F040031BB2002B18BF4FF0FF30E7
:101BF000039003982FB0BDE8F08FFEF777FBB94B49
:101C000098457FF482AEB84B1B68D3F8048087E612
:101C1000B8F80C3003F400731BB2002B00F02082E4
:101C2000109810A909F04AFB4FF0FF300390E0E74D
:101C3000069B07925B42069345F0040598F8003036
:101C4000E0E6AA488DF83B10AA060B90DDF81CA030
:101C500040F188810AF1070222F00702D2E9006709
:101C600002F1080ACDF81CA0E80700F1A78356EAA4
:101C700007000CBF0022012202234FF000098DF85B
:101C80003B90BBF1000FA8BF25F08005BBF1000F12
:101C900018BF42F00102002A00F0DB82012B00F0A5
:101CA0008183022B00F05F830DF17700DC464FF05B
:101CB000070AF10806EA0A0241EA477130324FEAA0
:101CC000D70E0E46D2B2774603460270013856EA66
:101CD000070BECD1E9070993E34600F191830198E2
:101CE000C71ACDF814B0059EB742A8BF3E46B9F159
:101CF000000F00D0013615F0020318BF023615F0B0
:101D00008409089340F0CA810698C6EB000BBBF12A
:101D1000000F40F3C381764B1399129A0A93BBF1DB
:101D2000100F2FDD584623460C95CB464FF0100A76
:101D3000B946049C029D3746064601E0102E1ADD86
:101D40004BF2B4100132C0F601001031103E83E8AE
:101D500001040833072A13911292EFDD2046294629
:101D600011AAFFF783FD002840F03E83102E13993F
:101D7000129A1EABE4DC1C460C9D33463E464F4691
:101D8000D9469B460A9B0132594484E80808083426
:101D9000072A1391129240F383810498029911AAA1
:101DA000FFF764FD00287FF40BAF1399129A1EAC65
:101DB00076E18DF83B10002B00F088838DF85030D1
:101DC000002301268DF83B3014AB374609930023DE
:101DD000059390E70AF1070323F00703D3E90067AF
:101DE00003F1080356EA070007930CBF0022012203
:101DF000002342E70AF1070323F00703D3E9006752
:101E000003F1080356EA070007930CBF00220122E2
:101E1000012332E7AB068DF83B10DDF81CA040F142
:101E200088800AF1070121F00701D1E90023083178
:101E3000079116461F46002A73F10000C0F20A837C
:101E400056EA07010CBF002201229DF83B900123B6
:101E500017E745F0400598F80030D3E598F80030D2
:101E600042466C2B03BF08F1010845F0200553786A
:101E700045F01005C6E5A8068DF83B1040F1F88244
:101E8000DDF81CA0039ADAF80030D1170AF1040A31
:101E90001A605960CDF81CA082E545F0200598F83D
:101EA0000030AFE5404610F8013B2A2B00F040839C
:101EB000A3F13002092A84BF80464FF0000B3FF6A1
:101EC000A3AD4FF0000B10F8013B0BEB8B0B02EBBB
:101ED0004B0BA3F13002092A8046F4D94BEAEB7B85
:101EE00092E500BF90B10108B0B101089CC601089D
:101EF000B4B1010845F0800598F8003082E540460D
:101F00000022A3F1300710F8013BA3F1300602EBE9
:101F10008202092E07EB42028046F2D9069273E54F
:101F200045F01005AB068DF83B10DDF81CA03FF521
:101F300078AFEF0602D46E0600F1C582DAF8003001
:101F40001E46F7170AF1040A32463B46CDF81CA09C
:101F500071E798488DF83B10AA060B90DDF81CA09D
:101F60003FF578AEEF0600F136826E0640F133821F
:101F7000BAF800600AF1040ACDF81CA0002773E645
:101F8000079BDDF81CB01B68002201260BF1040B37
:101F90008DF8503014AB8DF83B20CDF81CB037468F
:101FA000099314E745F0010598F800302AE5079AEF
:101FB000DDF81CA012680692069800280AF10402B7
:101FC000FFF636AE98F8003007921BE598F800301F
:101FD0002B2117E5079BDDF81CA01A6876483023F3
:101FE00000278DF83C30164678230AF1040AD21BEC
:101FF0008DF83D3018BF0122CDF81CA045F0020538
:102000000B90022339E698F8003000297FF4FAACEF
:102010002021F7E4079B07981B680026099300F12D
:10202000040A8DF83B60002B00F06582BBF1000FC5
:102030000998C0F2538231465A46FEF777FD0028D0
:1020400000F06582099B9DF83B90CDF81CA0C71A53
:102050005F45C4BF5F4605963FF745AE059642E62D
:1020600008F1600009F008F9DAE5DAF80020002745
:1020700016460AF1040AD21B18BF0122CDF81CA093
:102080000123FAE5DAF80020002716460AF1040ACF
:10209000D21B18BF0122CDF81CA0EEE51399129AAD
:1020A0009DF83B3063B10DF13B0301322360012306
:1020B000013163600834072A1391129200F33281D0
:1020C000089B5BB10FAB01322360022302316360D6
:1020D0000834072A1391129200F33081B9F1800F6E
:1020E00000F0C480059BC7EB030ABAF1000F43DD83
:1020F000BAF1100FDFF8C8902ADD5346484605951F
:10210000BA46B1464FF0100B049D06461F4601E04B
:10211000102F16DD01321031103F84E840080834DA
:10212000072A13911292F3DD2846029911AAFFF7AC
:102130009DFB00287FF444AD102F1399129A1EAC1A
:10214000E8DC3B463046059D57464E469A4681465A
:102150000132514484E800060834072A1391129290
:102160000ADD0498029911AAFFF780FB00287FF48A
:1021700027AD1399129A1EAC099B0132C91984E844
:1021800088000834072A1391129200F3BC806B0771
:1021900048D50698851B002D44DD084B129A0A93FA
:1021A000102D2DDD1027DDF81090DDF808A00B466E
:1021B0000AE000BF88C601089CC60108B4B1010846
:1021C000C4B10108102D1ADD4BF2B4100132C0F673
:1021D00001001033103D84E881000834072A13936E
:1021E0001292EFDD4846514611AAFFF73FFB002847
:1021F00040F00381102D139B129A1EACE4DC1946AB
:1022000001320A9B12926918072A84E82800139168
:1022100008DD0498029911AAFFF728FB00287FF433
:10222000CFAC13990398069A9642ACBF80198018D8
:10223000039000297FF4BCAC0023129398F800307F
:10224000002B18BF252B1EAC7FF4B1AB4546FFF722
:10225000CABB002B62D1EA0740F1818030238DF8A0
:1022600077300DF177030D9F09933AE50698C6EB99
:10227000000ABAF1000F7FF735AFBAF1100FDFF89F
:10228000DC922ADD534648460895BA46B1464FF0DF
:10229000100B049D06461F4601E0102F16DD01328B
:1022A0001031103F84E840080834072A1391129235
:1022B000F3DD2846029911AAFFF7D8FA00287FF427
:1022C0007FAC102F1399129A1EACE8DC3B463046C7
:1022D000089D57464E469A4681460132514484E84D
:1022E00000060834072A139112927FF7FBAE049878
:1022F000029911AAFFF7BAFA00287FF461AC13998A
:10230000129A1EACEEE60498029911AAFFF7AEFAF3
:1023100000287FF455AC13991EAC38E71EAB174666
:102320000993DEE40498029911AAFFF79FFA0028A6
:102330007FF446AC1399129A1EACC1E60498029938
:1023400011AAFFF793FA00287FF43AAC1399129A76
:102350001EACC3E608F1600008F08EFF3AE41F46A9
:102360001EAB0993BDE4DDF82CE0CDF814B00DF1FF
:1023700077014FF00F0A06EA0A027244330943EA72
:1023800007734FEA171C12781E46674608460A7004
:10239000013956EA070BECD101990990DDF814B028
:1023A0000F1A9EE4002F08BF0A2E32D230360DF1EC
:1023B00077038DF877600D9F099392E456EA070141
:1023C00064D030228DF83C208DF83D3045F0020578
:1023D0000122022351E4DAF800200AF1040A164629
:1023E0000027CDF81CA03FE4A846FFF7EBBB594BF4
:1023F0001B68D3F80880FFF793BAD046FFF7E2BB1B
:10240000302A73D001990990302203F8012C0F1A59
:1024100067E40DF1770A05945446304639460A229E
:10242000002301F079FA30322270304639460A2210
:10243000002301F071FA06460F4656EA0700A2464D
:1024400004F1FF34E9D10199CDF824A0059CCAEB31
:10245000010746E4764267EB470756EA07024FF06A
:102460002D090CBF002201228DF83B90012308E4C6
:10247000E90615D5DDF81CB00398DBF800300BF148
:10248000040BCDF81CB01860FFF78ABA00220223B3
:10249000FFF7F3BB08F1600008F0EEFEFFF765BB45
:1024A000DDF81CA06A06DAF800304ABFDDF80CB08F
:1024B0000398A3F800B00AF1040ACDF81CA058BF95
:1024C0001860FFF76DBABAF900603AE5139BDDF8C2
:1024D000088023BB00231293FFF774BBFFF794F926
:1024E0009DF83B90CDF81CA00746B7E50199099BE4
:1024F000CF1AFFF7F6BB184BCDF81CA0BBF1060FA7
:1025000034BF5F46062727EAE77609935FE49DF824
:102510003B90CDF81CA05F460590FFF7E4BB049804
:10252000414611AAFFF7A2F90028D3D0FFF74ABB12
:10253000DDF81CA098F80130DAF800B00AF10402C6
:10254000BBF1000F07928046B8BF4FF0FF3BFFF78B
:1025500059BA00BFB0B10108B0C60108C4B1010842
:102560002DE9F0470C46E0B0256AB1F80CA00895BB
:10257000896FA56AB4F80E901E9100264FF48077FB
:102580000A952AF0020A20AD694600950495804616
:10259000ADF80CA0ADF80E90029705970696189628
:1025A00019961A961B96FFF79FF9051E07DB404602
:1025B000694600F025FAB04218BF4FF0FF35BDF86C
:1025C0000C3003F040031BB21BB1A38943F040035E
:1025D000A38118A808F010FE284660B0BDE8F08777
:1025E00070B50D461446064605F0CAFC31462A462B
:1025F0002346BDE87040FFF777B900BF70B50446C9
:102600000D4605F0BDFC18B105F0BAFC836953B165
:1026100005F0B6FC064B22461C68A1682B46BDE8B7
:102620007040FFF761B905F0ABFCFDF75FFEEFE727
:10263000B0B1010870B50E461546044618B183695D
:102640000BB9FDF753FE054B20461C68A1683246C6
:102650002B46BDE87040FFF747B900BFB0B1010895
:1026600038B505460C4605F08BFC20B105F088FC1A
:102670008369002B4ED03D4B9C4252D03C4B9C4238
:1026800068D03C4B9C4202BF3B4B1B68DC68A38973
:1026900003F0080212B219466AB12269DAB113F0E6
:1026A000010124D103F002031BB203B96169A160E7
:1026B00022B3002038BD03F0100212B2002A4DD020
:1026C00001F0040109B200292FD1226943F0080367
:1026D000A381002AE3D103F42071B1F5007FDED09D
:1026E0002846214600F0A8FDA3892269D7E763693F
:1026F00000215B42A160A361002ADAD1A38903F023
:10270000800109B20029D4D043F04003A3814FF0E7
:10271000FF3038BD05F034FCFDF7E8FD134B9C425B
:10272000ACD1154B1B685C68B1E7616B49B104F132
:102730004402914203D0284600F0D6FAA389002231
:10274000626323F0240322691B0400211B0C6160D7
:102750002260BBE7084B1B689C6898E741F040018A
:1027600009232B604FF0FF30A18138BD90B10108E3
:1027700070B1010850B10108B0B10108F0B50C46C4
:1027800083B00546002976D010B18369002B60D054
:102790003A4B9C4262D03A4B9C4268D0394B9C42A7
:1027A00002BF394B1B68DC68012001A908F086FDD7
:1027B000A38903F400731BB204F16007002B39D026
:1027C0002846214600F01CF9236B06463BB12846FB
:1027D000216A984736EA200628BF4FF0FF36A389C2
:1027E00003F080031BB2002B3CD1616B41B104F1BB
:1027F0004403994202D0284600F076FA002363632E
:10280000A16C21B1284600F06FFA0023A364FDF704
:1028100055FD0023A381384608F02EFD384608F008
:10282000EBFCFDF751FD019801A908F047FD30468A
:1028300003B0F0BD384608F0E5FCB4F90C60002E9A
:10284000BED1384608F018FD019801A908F036FD00
:10285000EDE7FDF74BFD094B9C429CD10A4B1B68F1
:102860005C68A1E72846216900F03EFABDE7064B07
:102870001B689C6898E70E46D9E700BF90B1010835
:1028800070B1010850B10108B0B1010810B504469B
:1028900005F076FB2146BDE81040FFF76FBF00BF93
:1028A0008B8903F0080212B22DE9F0410D468046F3
:1028B000002A3FD14A6843F40061002AA9815DDD06
:1028C000EC6A002C4FD003F480531EB20023D8F8DA
:1028D0000070C8F80030002E54D0AA6D01F0040139
:1028E00009B229B169686B6B521A0BB12B6CD21A01
:1028F00000234046296AA047421C4ED0AB892A6972
:1029000003F4805123F40063AB8109B2002385E80E
:102910000C00002950D1696BC8F8007019B305F19B
:102920004403994202D0404600F0DEF9002068637B
:10293000BDE8F0810E69B6B19B070C6808BF4B6912
:102940000E6018BF0023A41B8B600AE032462346AA
:10295000AF6A296A4046B8470028C0EB0404064421
:1029600004DD002CF2DC0020BDE8F081AB8943F0EF
:102970004003AB814FF0FF30BDE8F0812A6C002AA4
:102980009EDCF0E7296A324601234046A047411CFD
:10299000024622D0A989EC6AA0E7D8F800307BB9BA
:1029A000AA8929696B6002F480531BB222F4006289
:1029B000AA812960002BAED0C317A865EB65AAE7F2
:1029C0001D2B01D0162B15D1AA892B6922F4006288
:1029D000AA8100226A602B609DE7D8F80030002BA6
:1029E000D8D01D2B18BF162BC0D1C8F800703046A8
:1029F000BDE8F081AB8943F04003AB81BDE8F081D5
:102A000030B50B6983B00C46054693B110B18369AC
:102A1000002B2AD0204B9C422CD0204B9C422DD006
:102A20001F4B9C4202BF1F4B1B68DC68B4F90C3083
:102A30001BB90025284603B030BD012001A908F0CC
:102A40003DFCA38903F400731BB203B3284621465F
:102A5000FFF726FFA38903F400731BB205468BB171
:102A6000019801A908F02AFCE4E7FDF73FFC0A4BB6
:102A70009C42D2D10B4B1B685C68D7E7094B1B68A3
:102A80009C68D3E704F1600008F0F6FBE8E704F186
:102A9000600008F0B7FBD9E790B1010870B10108F8
:102AA00050B10108B0B1010810B5044630B105F0CD
:102AB00067FA2146BDE81040FFF7A2BF034B044967
:102AC0001868BDE81040FDF70DBD00BFB0B10108AA
:102AD000012A00082DE9F043144683B007460E464C
:102AE000012001A908F0EAFBA38903F4007212B2E5
:102AF000002A6FD003F4005212B232B9A26F43F42D
:102B0000005342F40052A381A26700F071FB012838
:102B100057D038466946324604F1700300F07CFE17
:102B2000B0F1FF3FE846814626D000283AD0002584
:102B300009E0236818F805201A7023680133236020
:102B400001354D452ED2A368013B002BA360F0DA7E
:102B5000A269934228DB236818F805201A702368BD
:102B600019780A293CD00133002023600028E7D0DF
:102B7000A3894FF0FF3605E0A38943F040039BB2E1
:102B8000A381064603F400731BB21BB904F1600075
:102B900008F072FB019801A908F090FB304603B0E1
:102BA000BDE8F083A389EDE718F805103846224602
:102BB00000F0B0FDB0F1FF33584258410028BFD0BB
:102BC000D6E7731EFE2BA4D80DF10808814608F83D
:102BD000086DACE704F1600008F014FBA38989E7F5
:102BE0003846E4E738B505460C4605F0C9F918B192
:102BF00005F0C6F983699BB1114B9C4217D0114B6C
:102C00009C4218D0104B9C4202BF104B1B68DC68E2
:102C100005F0B6F929462246BDE83840FFF75ABF0D
:102C200005F0AEF9FDF762FB054B9C42E7D1074B7F
:102C30001B685C68ECE7054B1B689C68E8E700BF15
:102C400090B1010870B1010850B10108B0B101089C
:102C5000F8B5224D0F46044605F08EF9AB685E6864
:102C600026F0030606F2EF33DF1BBF0A013FBF0267
:102C7000B7F5806F07DB0021204605F063F9AB68EC
:102C80009B19984204D0204605F078F90020F8BD41
:102C90007942204605F056F901300DD0104BA96855
:102CA0001A68F61B46F00106D71B20464E601F60CF
:102CB00005F064F90120F8BD0021204605F042F935
:102CC000AB68C21A0F2ADEDD06490968401A0449BA
:102CD00042F0010208605A60D5E700BF7802001098
:102CE00068080010800600102DE9F0410D460646E8
:102CF000002955D005F040F955F8041CDFF868C1EB
:102D0000A5F1080421F00103E218DCF80800576877
:102D1000904227F0030765D011F00101576032D0CF
:102D20000021D0194068C00706D4DB19906800293B
:102D30004AD0D268C260906043F001026260E35002
:102D4000E1B9B3F5007F2DD35A0A042A66D8980951
:102D5000383041000CEB810C4349DCF80820624517
:102D600067D0516821F003018B4202D292689445EA
:102D7000F7D1D368E360A260D4609C603046BDE8C0
:102D8000F04105F0FBB855F8085C641B0CF108082D
:102D9000A06840452B443FD0E568C560A860C0E707
:102DA000BDE8F081DB080CEBC302DCF8040091689D
:102DB000E2609B10012505FA03F31843A160CCF8EB
:102DC00004009460CC60D9E7284DA842B1D143F00B
:102DD0000102CCF81440CCF81040E060A0606260C2
:102DE000E350CBE7FF18CB0707D455F8083CE41AAB
:102DF000FF18A268E368D3609A601D4BCCF80840C6
:102E00001B6847F001029F426260B7D3194B3046FE
:102E10001968FFF71DFFB1E7012182E702F15B00AE
:102E20004100142A96D9542A0CD8180B6E30410050
:102E300090E74B688010012505FA00F003434B60D2
:102E4000134697E7B2F5AA7F03D8D80B7730410035
:102E500080E740F254518A4203D8980C7C304100FC
:102E600078E7FC217E2075E77802001080020010D0
:102E700084060010640800102DE9F04F936883B0B9
:102E8000914680460C46002B2CD0888900F0080320
:102E90001BB2002B2AD00B69002B27D000F00203B5
:102EA0001BB2D9F80050002B2FD04FF0000A4FF47E
:102EB0007F4B5746C7F6FF7B5F4534BF3B465B46BB
:102EC00052464046002F5AD0216AA66AB0470028D1
:102ED0006BDDD9F808301B1A82443F1AC9F8083054
:102EE000002BE9D1002003B0BDE8F08F4046214619
:102EF000FFF7B6FB002840F04D81A089D9F80050BB
:102F000000F002031BB2002BCFD110F0010B53D104
:102F10005E46002E2ED000F4007212B2D4F808A043
:102F20000146002A00F083805645D446C0F0BB809D
:102F300001F49061002940F0C9802068374662465C
:102F40005946CDF800C0FDF7B7FEDDF800C0A16816
:102F50002268CAEB01036244A3602260D9F80830FA
:102F6000DB1BBB44F61BC9F80830002BBAD0A08984
:102F7000002ED0D1D5F800B06E680835C9E7D5F875
:102F800000A06F68083597E759463246CDF800C073
:102F9000FDF792FE23689B19236040462146FFF708
:102FA0002FFDDDF800C000282BD0A38943F040039B
:102FB000A3814FF0FF3096E79A469C469B461F46FA
:102FC000002F2DD0BCF1000F72D020682269A668B6
:102FD000D4F814E0BA4534BF53463B46904202D978
:102FE0007644B342D0DC734541DBA66A216ACDF852
:102FF00000C040465A467346B047061EDDF800C082
:10300000D3DDBAEB060A46D0D9F808309B1BB3448F
:10301000BF1BC9F80830002B3FF464AF002FD1D19B
:10302000D5F800B06F684FF0000C0835C8E720688D
:103030002269904202D86769BE427ED2564534BFAB
:10304000374657463A465946FDF736FEA36822688A
:10305000DB1BD219A3602260002B7FF47FAF4046B8
:103060002146FFF7CDFC00283FF478AF9DE71A46D4
:1030700059460193CDF800C0FDF71EFE019BA168E3
:103080002268DDF800C01E46C91AD218BAEB060A3B
:10309000A1602260B8D140462146FFF7B1FC00286C
:1030A00083D1D446B0E72068B2463746B44646E7F7
:1030B00058460A213A46FDF739FD002865D000F14F
:1030C000010ACBEB0A0A4FF0010C7EE72169236865
:1030D00067695B1A07EB470707EBD77703F1010E28
:1030E0007F10B644774500F480603A4600B23CBF9A
:1030F00077463A46002833D0404611460193FDF703
:103100006FFA019B8246002847D01A462169019335
:10311000FDF788FDA289019B22F4906242F08002B3
:10312000A2810AEB0300FA1AC4F810A067612060BC
:10313000B246A2603746B44601E76FF000439E42B4
:1031400038BF334693FBF7F303FB07F3216AA76A03
:1031500040465A46B84700287FF727AF0746FDE6A6
:103160004046019300F0E0F8019B82460028D8D148
:1031700040462169FFF7B8FDA38923F080031B04B3
:103180000C221B0CC8F8002010E707F1010A4FF0D1
:10319000010C1AE74FF0FF30A5E60C23C8F8003009
:1031A000A38903E710B5144622B110460A49FDF77A
:1031B000CFFF08B9094810BD20460849FDF7C8FFF0
:1031C0000028F7D020460649FDF7C2FF034B002830
:1031D0000CBF1846002010BDBCC60108B8C60108C7
:1031E00004B5010840F28860C1F20000704700BFDA
:1031F00040F28863C1F20003186A704700487047C4
:10320000AC0600100020704700487047CC06001044
:1032100038B50C46054604F0B3FE29462246BDE803
:103220003840FFF7BFBF00BF08B504F0A9FE014852
:1032300008BD00BFCC060010F0B58B8903F0020278
:1032400012B293B00C460546002A3CD1B1F90E10DB
:1032500000291ADB6A4604F07FFF002814DB029A7B
:103260000E9B02F47042B2F500514F424F41002BC9
:10327000CCBF1E464FF48076B2F5004F2AD0A3890A
:1032800043F40063A3810CE0A38903F0800636B207
:1032900043F40063002E0CBF4FF480764026A381D8
:1032A000002728463146FDF79BF9A389002827D03F
:1032B0001B4A43F080032A62A3812060206166617B
:1032C00097B913B0F0BD01F147030B600B61012307
:1032D0004B61F6E7E26A13498A42D0D1A28923659D
:1032E00042F48063A381DCE72846B4F90E1004F0B1
:1032F000EBFE0028E5D0A38943F00103A381E0E7BA
:1033000003F4007212B2002ADBD143F0020304F18D
:103310004702A3810123226022616361D1E700BFDC
:10332000F9010008151000082DE9F04F0C4683B094
:1033300081461746002900F0FF8004F01DFE07F1CA
:103340000B0554F8043C162DA4F1080A23F00306DB
:1033500063D810214FF000080D46BD4238BF48F039
:103360000108B8F1000F40F0ED808E425BDADFF823
:10337000A0C3DCF808000AEB0602904200F0E780E8
:10338000D2F804E02EF0010B9344DBF804B01BF0FC
:10339000010F1CBFC64672465ED0DB0700F1A68057
:1033A00054F8083CC3EB0A0BDBF8043023F00303AA
:1033B0009B190193002A5AD082420EEB030800F0B9
:1033C0001481884553DBD36892685F469A60D36066
:1033D000DBF80C3057F8081F321F242ACB609960A5
:1033E00000F24181132A98BF3B460BD92368CBF8E2
:1033F000083063681B2ACBF80C3000F23D810BF1DA
:103400001003083422681A6062685A60A2689A60E1
:10341000DBF804303C46DA4606E025F0070529468D
:103420004FEAD57899E7B046C5EB08020F2A49D88C
:1034300003F001030AEB080243EA0803CAF8043068
:10344000536843F001035360484604F097FD274654
:10345000384603B0BDE8F08F2EF0030E0EEB0608E1
:1034600088459ADBD1689268D1608A60DCE7019B6D
:103470008B423BDB5F46DBF80C3057F8081F321FEE
:10348000242ACB60996000F2A180132A98BF3B46A2
:103490000BD92368CBF8083063681B2ACBF80C30B3
:1034A00000F2F6800BF1100308342268DDF8048086
:1034B0001A6062685A60A2689A60DBF804303C4681
:1034C000DA46B1E70AEB050103F0010388181D4352
:1034D00042F00102CAF804504A60436843F0010315
:1034E000436008314846FFF7FFFBADE739464846E1
:1034F000FDF776F80746D8B154F8043C23F00102F2
:10350000A0F108015244914200F0A780321F242A02
:1035100067D8132A9CBF0346224638D81168196021
:103520005168596092689A6048462146FFF7DCFB73
:10353000484604F023FD8BE7114603B0BDE8F04F89
:10354000FDF74EB80C23C9F80030002780E7426829
:1035500022F0030E0EEB060205F110084245B8BF3B
:103560000246FFF61AAF0AEB0503521B42F00102B6
:103570005A6054F8042CCCF8083002F001021543CC
:1035800044F8045C484604F0F9FC274660E72368E9
:10359000036063681B2A43609CBF04F1080200F1CA
:1035A0000803BBD9A3688360E368242AC36003BF10
:1035B00023690361626900F1100309BF426104F1EC
:1035C000100200F1180304F11802A7E7214638465B
:1035D000FDF772FB3C46DBF80430DDF80480DA4688
:1035E00022E72146FDF768FB9EE705F110039845A9
:1035F000FFF63DAF5F46DBF80C3057F8081F321F6F
:10360000242ACB60996063D8132A98BF3B460AD915
:103610002368CBF8083063681B2ACBF80C3060D8DD
:103620000BF11003083422681A6062685A60A268BD
:103630009A600BEB0503C5EB080242F001025A60E9
:10364000DBF80420CCF8083002F001021543CBF877
:103650000450484604F092FCFAE650F8042C22F09C
:103660000308B044E0E621463846FDF725FB3C461A
:10367000DBF80430DA46D7E6A368CBF81030E3680D
:10368000242ACBF814300FD00BF118031034B9E60C
:10369000A368CBF81030E368242ACBF814300DD09F
:1036A0000BF11803103400E72369CBF81830626976
:1036B0000BF12003CBF81C201834A3E62369CBF8C8
:1036C000183062690BF12003CBF81C201834ECE6AB
:1036D00038462146CDF800C0FDF7EEFADDF800C00F
:1036E000A7E7A368CBF81030E368242ACBF814309E
:1036F00003D00BF11803103495E72369CBF8183089
:1037000062690BF12003CBF81C2018348BE700BF53
:103710007802001070B50D461446064610B1836954
:10372000002B57D0324B9C4259D0324B9C425AD03E
:10373000314B9C4202BF314B1B68DC68A389A269F4
:1037400003F0080000B2A26000283AD02269002AE3
:1037500037D003F4005109B2EDB2A9B12368616911
:103760009A1A8A421CDA0132A1680139A16003F871
:10377000015B6169236091421AD0A389DB0701D5FF
:103780000A2D15D0284670BDA16F43F4005321F4D3
:103790000051A3812368A16761699A1A8A42E2DB1A
:1037A00030462146FFF72CF940B923680122DBE7B8
:1037B00030462146FFF724F90028E3D04FF0FF35CB
:1037C000E0E730462146FEF74BFF0028F6D1A389FB
:1037D0002269BEE7FCF78AFD054B9C42A5D1074B49
:1037E0001B685C68AAE7054B1B689C68A6E700BFDE
:1037F00090B1010870B1010850B10108B0B10108E1
:1038000038B50C46054604F0BBFB29462246BDE808
:103810003840FFF77FBF00BF2DE9F0411E4686B05C
:103820000C46054617460F4B91B1D3F80080FFF7C1
:10383000D9FC00960346214628463A46C047431C19
:1038400003D1002333608A232B6006B0BDE8F081EA
:103850001F68FFF7C7FC0096034603A928462246C7
:10386000B847ECE7040700102DE9F041164B86B08D
:1038700004460E461546C8B11F6804F081FB804619
:10388000FFF7B0FC21460346009540463246B84754
:103890000446621C03D0204606B0BDE8F081002338
:1038A0002B6004F06DFB8A230360F4E71E6804F0CC
:1038B00067FB0746FFF796FC22460346009538460D
:1038C00003A9B0470446E4E70407001021B1FF2A2A
:1038D00004D80A7001207047084670478A230360A5
:1038E0004FF0FF30704700BF2DE9F04140F2047403
:1038F000C1F2000482B01D46064688461746246879
:10390000FFF770FC00950346414630463A46A04713
:1039100002B0BDE8F08100BF4BB942B9002908BF31
:10392000002802D04FF0FF31084600F0DBBF82B024
:10393000EC462DE9005000F01BF8DDF804E002B081
:103940000CBC7047F8B5164604460D461F4600F0FD
:10395000CBFF06FB01F300FB0737A6FB0023FB1898
:10396000A21A65EB0303069CC4E90023F8BD00BF5F
:10397000F8B5164604460D461F4601F019F900FB3E
:1039800007F7A0FB062306FB0177FB18A21A65EBDD
:103990000303069CC4E90023F8BD00BF03685A0076
:1039A0004CBF43F0004323F00043C018704700BFF2
:1039B0002DE9F04F064683B0914611B301390191CC
:1039C0008846002707EB080404EBD474641006EB68
:1039D000C40B5846FFF7E2FF019B651CA3428246D9
:1039E00006EBC50015D0FFF7D9FF0138CA4504D949
:1039F000BC420BD004F1FF38E4E7484502D22F4621
:103A0000E0E78B46584603B0BDE8F08F4FF0000B5F
:103A1000F8E7CA45ECD8F5E7012807D0022807D017
:103A2000044B00280CBF184600207047024870471E
:103A300002487047B9400008B1400008A94000089A
:103A4000036810B50446D80706D4990704F1480066
:103A500009D500F0B5FC23685A0709D518070ED51B
:103A6000D90613D510BD00F0A3FC23685A07F5D47E
:103A700004F1D00000F0ACFC23681807F0D404F582
:103A8000D87000F0ADFC2368D906EBD404F50C70B7
:103A9000BDE8104000F0E8BC30B5244B83B00446CC
:103AA0008D1E002B3CD0284601A9AFF300800346B1
:103AB000002B21D02A460199FFF77AFF0546F0B185
:103AC000FFF76CFF6B68A064012B11D0281D002B41
:103AD00022DBFFF763FF0023E06423650368002B0C
:103AE00010DBFFF75BFF00232061184603B030BDF9
:103AF000002323610523F8E723610923F5E720610B
:103B00000923F2E7C3F30360FFF786FF2061002873
:103B10000CBF09230023E8E70123E0642365DDE708
:103B20000348044B1B1ADB100193C3E7000000009D
:103B3000CCC60108FCD20108036803B11B18184663
:103B4000704700BF09207047704700BF2DE9F0475C
:103B50000C1D064617460FCCADF5916D03AD0FC594
:103B60000FCC0FC50FCC0FC594E80F0002ACD6F8F0
:103B70000C80D6F8189085E80F0000233046216CA1
:103B800023609F4214BF0A270927FFF785FF0546D8
:103B900095B1A36B0094324663640120CDF8049084
:103BA00047F010013346C047002831D1284622B0E3
:103BB0000DF5806DBDE8F087236C21464FF410723F
:103BC000736192A8FDF72EF8314692AA3369384600
:103BD0009847A09B0094824663640120CDF804902E
:103BE000394632463346C04790B9204692A94FF431
:103BF0001072FDF717F8BAF1080F06D13046216CA4
:103C0000FFF74AFF09270546C2E7BAF1070F01D0BF
:103C10000925CBE72846216CFFF796FF03A800F0A3
:103C2000BBFB00BF70B504460D462046296CFFF76C
:103C300033FF064650B92A6C236962610120214690
:103C40002A4698470828F0D0072801D0FCF79CFAAC
:103C50003046296CFFF778FF281D00F09DFB00BF60
:103C6000406C7047CB6BF0B50B640D1D0F460646DC
:103C70000FCDADF5117D01AC0FC40FCD0FC40FCD2D
:103C80000FC495E80F0084E80F004FF0FF33009356
:103C900030461099FFF700FF58B9336931466A463C
:103CA000984708280446F3D06846FFF7C9FE062C5B
:103CB00003D009200DF5117DF0BD30463946FFF7E0
:103CC000B1FF00BF30B4DD6BC160826104461946AC
:103CD00000221D6430BCFFF739BF00BF70B54369D7
:103CE000C6680B6404460D4626B10122FFF72EFF7D
:103CF000FCF74AFA0369214602202A46984707281A
:103D000003D0082808D0FCF73FFA3046296CFFF7AB
:103D10001BFF281D00F040FB20462946FFF782FFCD
:103D2000C26810B42AB1CC6B00220C6410BCFFF73F
:103D30000DBF10BCFFF796BF704700BF08B5836882
:103D400001460BB10120984708BD00BF81B90F2A79
:103D500098BF002B08BF00EB82020CBF0023012399
:103D600001BF18465268009B1A6018BF02207047B6
:103D700004298CBF02200120704700BF00B585B028
:103D80000A4603AB002100930B46FFF7DFFF0398C1
:103D900005B000BD79B90F2A98BF002B02BF00996A
:103DA00000EB820209680CBF0023012306BF1846FE
:103DB00051600220704704298CBF02200120704707
:103DC00010B584B004AB0C4643F8042D00210093D9
:103DD00022460B46FFF7DEFF04B010BD2DE9F04F81
:103DE000CE6C8BB00C4656F8041B1D46174600F0EF
:103DF000030807910896E3B909028DF825300323DB
:103E000007918DF82430236DB8F1020F08BFA66B1F
:103E100013F001031BD000220192022D40F3B38066
:103E2000FFF790FE002800F0B58009200BB0BDE838
:103E3000F08F022BE7DC0B0CDAB209048DF8253089
:103E4000022307918DF8243006EB8206DBE700F0B1
:103E5000080004F15802C0B2019302920390AA46EE
:103E60003568002D00F0FB80BAF1020F00F087806A
:103E70003588B6F802900436A36C0F2129F0010BA7
:103E800038469B44FFF77AFF83451AD825F0010393
:103E90009B4409F0010905F00105584545EA49052B
:103EA0002CBF00200120012D14D02ED2B8F1000F1C
:103EB0000CBF002000F00100002840F0BD80043657
:103EC000CEE709F0010905F0010545EA49050020A2
:103ED000012DEAD1B8F1000F71D1A0B17368356836
:103EE0009A1CA2D0029A0133069200F09B80301DEA
:103EF000FFF722FEEA0F014606AB20460EF0B2FBAA
:103F0000002840F0BF800836AAE7022D8DD1336823
:103F100023F00045B8F1000F6AD150B3039A002A8C
:103F200018BF002D25D1002D00F09C8006F1040B58
:103F3000C1460496CDF81480029ED84603E0AB45F6
:103F4000D94600F08E8040460696FFF7F5FD002228
:103F5000014606AB20460EF085FB09F1010B08F186
:103F600004080028EBD04D45049EDDF8148079D07C
:103F70003368002B54DB013506EB850670E7D6F875
:103F80000490083678E7384607A900F001FB0028BE
:103F90007FF44BAF019B0820002B3FF447AF0F216C
:103FA0003846FFF7EBFE0E2102463846FFF708FFC2
:103FB00038460F213B4AFFF703FF072036E70D2164
:103FC0003846256AFFF7DAFE85429CD1A36A9E42F5
:103FD00099D13046FFF7E2FC0F2102463846FFF741
:103FE000EFFE384600212246FFF7EAFE07201DE7D4
:103FF0000D213846D4F82090FFF7C0FE8145B7D197
:10400000A36A9E42B4D10022331DE2620422A5625B
:10401000226363633368002B2EDB01230193AAE73D
:104020000436A8E738460D21FFF7A8FE2062069B5C
:104030006362A6620620F9E63046FFF7AFFC04365D
:104040000546A66320460EF063FB00283FF4EDAE64
:1040500038460F212A46FFF7B3FE0720E6E655460D
:10406000DBE6049E38460D21FFF788FE069B2062A2
:104070006362A6620620D9E605F10100A94606EBB7
:104080008000A7E703460D2138460093FFF776FE30
:10409000009B2062022BCAD12346069A43F82C2F9C
:1040A0006362C6E7F12201080223FFF797BE00BF53
:1040B0000123FFF793BE00BF0023FFF78FBE00BFB1
:1040C000D36BF0B51364151D07460E460FCDADF545
:1040D000277D17AC0FC40FCD0FC40FCD0FC495E8CB
:1040E0000F0084E80F004FF0FF33169326996846BF
:1040F000FFF7D2FC6A460C21B8B916A8FFF760FE9C
:10410000314616A8B847694616AA70B90820049B1C
:104110009847092818BF05280446E7D116A8FFF7D5
:104120008FFC20460DF5277DF0BD0924F6E700BF82
:104130002DE9F0410446E8B0042907D8DFE801F092
:104140002C4644030A00032B00F0C380022068B011
:10415000BDE8F081102A98BF002BF7D12368D9065B
:1041600000F1DB8002A8019200F088F9A06B019AAF
:104170000023012505FA03F111421EBF50F8041B6C
:1041800002AE46F823100133042BF3D1A06302A83A
:1041900000F06AF90020DAE7002BD7D1A56B96B2C0
:1041A000012000FA03F131421EBF04EB830755F8EA
:1041B000041B79600133102BF3D112F4005008BFB7
:1041C000A563C4D00020C2E70120C0E703F0FB01D3
:1041D0000129BBD1150C96B27219012B14BF2021F5
:1041E00010219142B2D3B3F1010CDCF1000757EB7F
:1041F0000C070F2D94BF002101213942A6D1B046F2
:1042000021B9102A40F2AB80A2F11008B8F1000FDA
:1042100018BF052B9AD10F2D0FD82268D0070CD5C7
:1042200022F00101052B2160204600F0AE8022F033
:10423000030240F8482B00F0BFF8B8F1000F02D09D
:10424000236859077BD4002F40F098800F2D6ED93A
:10425000B8F1000F40F08C80A06B002E014610DDFD
:1042600046AA4FEA460C02EBC5060CF1FF31334675
:104270009A1B0139125843F8042B4A1CF8D100EB61
:104280008C01B8F1000F16D068AB102D2CBF2E4654
:10429000102603EBC6064FEA480CA6F502760CF191
:1042A000FF33081F50F8042F013B46F8042B5A1C1B
:1042B000F8D101EB8C01002F53D10F2DA1633AD916
:1042C000B8F1000F3FF47EAF06A800F081F800209F
:1042D0003DE7150C96B27319102B3FF637AF2368E4
:1042E000180734D426A800F09DF8A06B26AA760003
:1042F00002EBC5050346721E4EB12B46591B013A0F
:10430000095843F8041B511CF8D100EB860326A87A
:10431000A36300F065F8002019E723F01003236081
:1043200004F50C70019200F0A9F8019A1AE746A86A
:1043300000F04AF88CE746A800F042F8C0E72046B3
:1043400023F0040340F8D03B00F046F87BE723F06D
:104350000803236004F5D87000F064F8C2E78846CB
:1043600059E7043146A8A16300F022F80020EEE6E8
:1043700006A800F031F8C5F110066DE746A800F078
:104380001BF8B8F1000FF6D166E741F0020140F8E2
:10439000481B00F019F850E700F1340191E83800AB
:1043A0009C46A6464CF8045D90E8FF0FE54600BD2C
:1043B00090EC210B704700BF80EC210B704700BFD1
:1043C00090EC200B704700BF80EC200B704700BFC3
:1043D000D0EC200B704700BFC0EC200B704700BF33
:1043E000F0EC0201F0EC0211F0EC0221F0EC0231F1
:1043F000F0EC0241F0EC0251F0EC0261F0EC0271E1
:10440000F0EC0281F0EC0291F0EC02A1F0EC02B1D0
:10441000F0EC02C1F0EC02D1F0EC02E1F0EC02F1C0
:10442000704700BFE0EC0201E0EC0211E0EC022179
:10443000E0EC0231E0EC0241E0EC0251E0EC026120
:10444000E0EC0271E0EC0281E0EC0291E0EC02A110
:10445000E0EC02B1E0EC02C1E0EC02D1E0EC02E100
:10446000E0EC02F1704700BFB0FC0181B0FC0191AB
:10447000B0FC01A1B0FC01B1704700BFA0FC0181FC
:10448000A0FC0191A0FC01A1A0FC01B1704700BFFC
:10449000EC4600B52DE900502DE9FF1F4FF0000359
:1044A0002DE90C0001A9FFF7DDFBDDF840E012B0BB
:1044B000704700BFEC4600B52DE900502DE9FF1F05
:1044C0004FF000032DE90C0001A9FFF707FCDDF810
:1044D00040E012B0704700BFEC4600B52DE9005037
:1044E0002DE9FF1F4FF000032DE90C0001A9FFF794
:1044F00017FCDDF840E012B0704700BFEC4600B595
:104500002DE900502DE9FF1F4FF000032DE90C00AD
:1045100001ABFFF7D7FBDDF840E012B0704700BFFA
:10452000EC4600B52DE900502DE9FF1F4FF00003C8
:104530002DE90C0001AAFFF7C3FDDDF840E012B041
:10454000704700BF027A03461AB9427A42B9B020D6
:104550007047013A00681A7202021A60000E704732
:104560004168013A427251F8040B032259601A72F1
:10457000F2E700BF00B585B0002103AB00930C2229
:104580000B46FFF7E3FB039805B000BDFFF7F2BF52
:104590002DE9F043064685B00D464FF00008284649
:1045A000FFF7D0FFB028044600F0BE8020F07F0265
:1045B000D1B201B300F0F002802A79D0902A3AD02B
:1045C000A02A46D0B02A5AD0C02A00F0898000F034
:1045D000F803D02B0BD100F00704621C30460121F8
:1045E00042F400220523FFF7A3FD0028D7D00920BD
:1045F00005B0BDE8F0834FEA800903AF04F0400442
:104600000B465FFA89F9009730460D22E4B2FFF7B6
:104610009DFB09F10409039B4CB94B440393002112
:10462000009730460D220B46FFF7B4FBB7E7C9EB06
:1046300003030393F3E700F00D030D2BD7D003AF73
:10464000002100F00F020B4600973046FFF77EFB7B
:10465000E5E7C2434FF47F6302F0070200F008046D
:1046600043FA02F2E4B21A400CB142F48042002153
:1046700030460B46FFF75CFD0028B8D18FE7B12824
:1046800076D0B22800F08780B32800F0B68000F022
:10469000FC03B42B5ED000F007020132012130464A
:1046A00042F400220B46FFF743FD00289FD176E736
:1046B0002846FFF747FF24020443B4F5004F96D085
:1046C000220500213046120C0B462401FFF730FD75
:1046D00000288CD114F4004F18BF4FF001085EE79A
:1046E000C62800F09D80C72800F0A48000F0F803E1
:1046F000C02B00F0B280C82800F0BD80C9287FF42C
:1047000076AF2846FFF71EFF00F00F03013300F0DD
:10471000F00243EA0232304601210523FFF708FD8B
:1047200000287FF464AF3AE70020B8F1000F7FF46F
:104730005FAF03AC41460E22434600943046FFF77C
:1047400005FB0094304641460F224346FFF722FB0B
:1047500040464DE700F0030201320221304642F4A8
:1047600080220B46FFF7E4FC00287FF440AF16E7F9
:104770002846FFF7E7FE024600283FF438AF10F066
:10478000F0017FF434AF30460B46FFF7D1FC002830
:104790007FF42DAF03E7002103AF0D220B460097F6
:1047A0003046FFF7D3FA2846FFF7CCFE20F07F0310
:1047B000022413F0FF0F0FD0039B00F07F0000FADC
:1047C00004F01B1828460393FFF7BCFE20F07F037C
:1047D000073413F0FF0FEFD1039B009700F07F0029
:1047E00003F5017300FA04F400211C1930460D2270
:1047F0000B460394FFF7CEFAD1E62846FFF7A2FE58
:1048000000F00F03013300F0F002012143EA02320D
:1048100030460B46FFF78CFC00287FF4E8AEBEE67E
:104820002846FFF78FFE00F00F03013300F0F0027F
:104830000321EBE72846FFF785FE024600283FF4F8
:10484000D6AE10F0F0037FF4D2AE30460421FFF76D
:104850006FFC00287FF4CBAEA1E600F00F0201321E
:104860000321304642F420220B46FFF761FC00286A
:104870007FF4BDAE93E62846FFF764FE00F0F00239
:1048800000F00F031032013343E700BF10B5C36CD3
:1048900084B003225C688DF80C20DA792402083396
:1048A000084601A9019402938DF80D20FFF770FED0
:1048B00004B010BD08B5FFF769FE806C08BD00BFED
:1048C00008B5FFF763FEC36CDA7903EB82000830AA
:1048D00008BD00BF08B5FBF757FC00BF08B5FBF7E4
:1048E00053FC00BF704700BF2DE9F00F00240029E2
:1048F0001D46C0F20681002DC0F2FE8080460F46A4
:1049000094461E46DBBB8A4248D9B2FA82F343B1D1
:10491000C3F1200520FA05F501FA03F19A40294375
:104920009840150CB1FBF5F6030C1FFA82FC05FB51
:1049300016110CFB06F743EA01439F4208D9711E8A
:104940009B1880F028819F4240F22581023E9B18EF
:10495000DB1BB3FBF5F105FB113380B20CFB01FC53
:1049600040EA0340844506D94B1E821802D2023920
:10497000944500D8194641EA0641002503E08B42E0
:1049800044D9002529460A462B4614B1524263EB0E
:10499000430310461946BDE8F00F704712B90123D2
:1049A000B3FBF2F2B2FA82F6002E40F0B080891A20
:1049B000130C1FFA82FC0125B1FBF3F703FB17115F
:1049C0004FEA10490CFB07F849EA0146B04506D901
:1049D000791EB61802D2B04500F2E7800F46C8EB48
:1049E0000606B6FBF3F103FB116380B20CFB01FC7E
:1049F00040EA03439C4506D94E1E9B1802D2023959
:104A00009C4500D8314641EA0741BCE7B3FA83F53B
:104A1000002D00F0B980C5F1200103FA05F622FA55
:104A200001F31E4327FA01F24FEA164807FA05F789
:104A300020FA01F1B2FBF8F90F433B0C1FFA86FA9A
:104A400008FB19220AFB09FB43EA024293450CFAD0
:104A500005FC0BD9921909F1FF3380F0A280934530
:104A600084BFA9F10209921940F29B80CBEB0202AC
:104A7000B2FBF8F108FB1122BFB20AFB01FA47EAC8
:104A800002439A4508D94A1E9B1980F086809A45B0
:104A900040F2838002399B1941EA09410F0C1FFA49
:104AA0008CF808FB07F68AB24FEA1C4C08FB02F8A8
:104AB0000CFB026202EB18420CFB07FC964288BF1B
:104AC0000CF5803CCAEB03030CEB124C634510D38E
:104AD0001FFA88F814BF0023012300FA05F508EB3C
:104AE000024295422CBF002503F00105002D3FF442
:104AF0004AAF0139002546E7E443524263EB4303E2
:104B0000FCE6404261EB41014FF0FF34F3E6B24076
:104B1000C6F1200921FA09F7130C20FA09F901FA64
:104B200006F1B7FBF3F849EA01091FFA82FC03FB1F
:104B300018774FEA19410CFB08F541EA0747B040E6
:104B4000BD4209D9BF1808F1FF312CD2BD4284BF44
:104B5000A8F10208BF1826D97F1BB7FBF3F503FBAA
:104B600015711FFA89F90CFB05F649EA01418E42DD
:104B700006D96F1E891812D28E4210D9023D8918AB
:104B8000891B45EA084517E70121BB4228BF82423D
:104B90007FF6F9AEF5E60E46DAE611467CE73D46CD
:104BA000EEE7994662E78846D6E7023FB61816E771
:104BB0002DE9F007144605460E46DBBB8A4246D96E
:104BC000B2FA82F343B1C3F1200220FA02F201FAF1
:104BD00003F69C4016439D40230CB6FBF3F1280CD2
:104BE000A7B203FB116607FB01F240EA0646B24298
:104BF00008D9481E361980F00E81B24240F20B816E
:104C000002393619B61AB6FBF3F203FB1263ADB2E2
:104C100007FB02F745EA03439F4207D9501E1B19C1
:104C200080F0F780023A9F4240F2F38042EA01406E
:104C3000002146E08B4242D8B3FA83F4002C43D1E2
:104C40008B4228BF82423AD82146012039E012B96E
:104C50000123B3FBF2F4B4FA84F2002A40F09B8003
:104C60000A1B230CA7B20121B2FBF3F603FB1622A9
:104C70004FEA154C07FB06F04CEA0242904207D976
:104C8000121906F1FF3C02D2904200F2DB80664628
:104C9000121AB2FBF3F003FB1023ADB207FB00F7CF
:104CA00045EA03439F4207D9421E1B1980F0B58095
:104CB00002389F4240F2B18040EA064001E0002104
:104CC0000846BDE8F0077047C4F1200C22FA0CF545
:104CD00003FA04F32B4321FA0CF61F0C01FA04F13A
:104CE00020FA0CFCB6FBF7F84CEA01010D0C1FFA98
:104CF00083F907FB186609FB08FA45EA0646B24540
:104D000002FA04F205D9F61808F1FF35C0F08E80DA
:104D1000A846CAEB0606B6FBF7FC07FB1C6689B281
:104D200009FB0CF941EA0645A94504D9ED180CF137
:104D3000FF3174D38C464CEA084C97B24FEA1C46BC
:104D4000120C07FB06F11FFA8CF307FB03F702FBBB
:104D5000031303EB174302FB06F2994288BF02F5E7
:104D60008032C9EB050502EB134295420FD3BFB267
:104D700000FA04F114BF0022012207EB0343994219
:104D80002CBF002102F001016046002999D00CF1EE
:104D9000FF30002195E79440C2F1200521FA05F685
:104DA000230C01FA02F120FA05F9B6FBF3FC49EAFB
:104DB0000109A7B203FB1C664FEA194107FB0CF877
:104DC00041EA0646B04500FA02F509D936190CF158
:104DD000FF3233D2B04584BFACF1020C36192DD965
:104DE000C8EB0606B6FBF3F003FB10621FFA89F965
:104DF00007FB00F149EA0242914206D9461E121908
:104E00001ED291421CD902381219521A40EA0C41A2
:104E10002AE702460AE70146F4E610464CE7A945B0
:104E200084BFACF1020CED1885D883E7B24584BF8E
:104E3000A8F10208F6183FF66CAF69E79446CFE791
:104E40003046E2E7023E121922E700BF30B50E4BB2
:104E50000E4D85B0019345F22D630293002300951A
:104E6000039300F093F969466C4600F05FFA6846D8
:104E7000009500F037F8002005B030BD6846009579
:104E800000F030F80DF0E8FBB44F010810A601085F
:104E900030B4124B1A6892F80A34DBB192F8094424
:104EA00004F5807146F2880352F82150C4F20203DF
:104EB00043F60C4042F6514102EB4422C4F200009A
:104EC000C0F2020100241C609860DA605D60196025
:104ED00030BC7047024B01221A70F9E7100700102E
:104EE00000020010014B0360704700BFF0A50108ED
:104EF0000023C360704700BF014B0360704700BFD1
:104F0000F0A50108034B10B5044603600CF0E2FA6B
:104F1000204610BDF0A50108034B10B50446036000
:104F20000CF0D8FA204610BDF0A5010810B572B6F5
:104F30000E4C236893F80A24022A05D093F808043B
:104F400003EB402062B610BD00F040FD62B600F0F9
:104F5000E5FC72B6236893F80A24022AEED1F3E73F
:104F600062B60DF079FB72B6FAE700BF10070010C9
:104F700010B572B6104B1C6894F80A340133DBB2DA
:104F8000022B84F80A3410D894F8083403F58072A0
:104F90000133DBB24FF48071012B44F8221000D9A9
:104FA000002384F8083462B610BD032001F0A0F895
:104FB000EAE762B60DF050FB1007001012F0030F85
:104FC0002DE9F047904605468A4637D18268C36886
:104FD000C3EB02094FEA8909C845B8BFC146B9F118
:104FE000000F1EDD09F1FF3701F10204BF0804EBD9
:104FF000C70700E008346A68D65C0133EB6006F04E
:105000000F0000F01BFB80B2208024F8020C300956
:1050100000F014FBBC4280B2A0806080EB68E9D154
:10502000AA6893420DDBC14508DA0AEB49090AEB8D
:105030004808002329F8023BC145FBD10120BDE807
:10504000F0870020BDE8F08712F0010F2DE9F0474E
:10505000904605468A4633D18268C368C3EB02098D
:105060004FEA4909C845B8BFC146B9F1000F1ADD7A
:1050700009F1FF3701F102047F0804EB870700E024
:1050800004346A68D65C0133EB6006F00F0000F070
:10509000D5FA24F8020C300900F0D0FABC42208086
:1050A000EB68EDD1AA6893420DDBC14508DA0AEB43
:1050B00049090AEB4808002329F8023BC145FBD106
:1050C0000120BDE8F0870020BDE8F08710B5044658
:1050D000806808B10CF0FEF9204610BDEFF309819D
:1050E0000C480068A0E8F24F5FEACE6201D480EC81
:1050F000108ABFF35F8F00F00FF806480068B0E831
:10510000F24F5FEACE6201D490EC108A81F30988F5
:10511000704700006807001010B54FF4C042164CED
:10512000C4F2020223684FF43461D16093F8092479
:1051300093F80A140132D2B20139012A88BF002241
:10514000C9B283F80A1483F80924FFF7A1FE606846
:1051500000F046FC606800F037FC044600F02EFCCE
:1051600000F032FC23B200B2984200DB10BDBDE873
:10517000104001F02DBB00BF1007001010B500213A
:10518000044600F071FD204610BD00BF10B5104C64
:10519000A368DB0701D50F4810BD04F1080003F038
:1051A0004DF90028F7D004F10C00FFF7E7FF04F1F8
:1051B000080003F0A3F90849084A04F10C000DF0B7
:1051C00045FA044810BD064803F0A2F90DF044FA70
:1051D000100700101C070010CD500008040200103A
:1051E0001807001038B54FF48065C4F202052B692A
:1051F000590609D43224012000F094FB2B695A0689
:1052000004D5042004F094FF012038BD013CF2D104
:10521000204638BD2DE9F0474FF480640546082646
:10522000C4F202044FF4007A4FF0400828064CBF45
:10523000A4F818A0A4F81AA0032004F079FF052010
:10524000A4F8188004F074FFFFF7CCFF0320A4F843
:105250001A806D004FF4806704F06AFF013EEDB2E2
:10526000C4F202074FF04009E0D14FF400733B83D2
:10527000032004F05DFF0320A7F8189004F058FF06
:10528000FFF7B0FF3C690546032004F051FF84F4AA
:1052900000740320A7F81A9004F04AFFC4F34020DA
:1052A0002840BDE8F08700BF2DE9F0414FF480644D
:1052B000C4F202044FF400750746402603206583BC
:1052C000884604F035FF0320668304F031FF942004
:1052D000FFF7A0FF3846FFF79DFF4046FFF79AFF14
:1052E0000320658304F024FF0320268304F020FFBD
:1052F000FFF778FF03202583BDE8F04104F018BFD5
:10530000002810B50ADB002420202146FFF7CCFF3F
:1053100021202146BDE81040FFF7C6BF342410F11C
:10532000650FF1DB4000C4B2EEE700BF2DE9F04F9E
:10533000834683B00C4600F047FA584601A900F0B6
:1053400041FE00F057FA40F20C400CF025FCDFF86B
:10535000E8A2002380F8083480F8093480F80A3481
:10536000CAF8000072B64FF46053C4F202034FF45F
:105370008062196B41F400111963196CC4F20202C6
:1053800041F4004119644FF4007313834023104625
:10539000138309210C2204F0D7FE4FF48060C4F27D
:1053A000020006210C2204F0CFFE4FF40060C4F28C
:1053B00002000721102204F0C7FE4FF40060C4F27F
:1053C00002000721062204F0E9FE4FF40060C4F257
:1053D00002000A21102204F0B7FE4FF40060C4F26C
:1053E00002000A21062204F0D9FE4FF40060C4F244
:1053F00002000C21102204F0A7FE4FF40060C4F25A
:1054000002000C21062204F0C9FE0020C4F20200B2
:105410000421102204F098FE0020C4F202000421AE
:10542000062204F0BBFE4FF44060C4F202000421E7
:10543000082204F089FE4FF46052C4F2020244F2E2
:10544000C033C2F20003C2F88430136843F08063B3
:10545000136062B613681D01FCD54FF44063C4F2BB
:10546000020310225A83052004F062FE4FF44063C9
:10547000C4F2020310221A83052004F059FE002012
:105480009921FFF711FF47208021FFF70DFF322000
:10549000BB21FFF709FF32203B21FFF705FF00206A
:1054A0000146FFF701FF05202021FFF7FDFE042044
:1054B000AF21FFF7F9FE06200421FFF7F5FE6FF09C
:1054C0001300FFF71DFF4FF47053C4F200030221D5
:1054D00059604FF4614201F501711962CEF2000288
:1054E0004FF46061D961202382F810334FF4803388
:1054F0001360FFF71BFD00214FF40072FBF782FCE5
:10550000FFF736FD236820469B68984700F046FA6F
:10551000484ECAF804000127B0464FF0000933781E
:105520003BB188F8009072B6FFF7B2FC62B66FB973
:10553000002723685D68FFF7F9FC01464FF480728D
:105540002046A84738B9FFF713FDE8E702209E215F
:10555000FFF7AAFEECE7FFF7E9FC00214FF4007229
:10556000FBF750FCFFF704FDFFF7E0FC00214FF4D0
:105570000072FBF747FCFFF7FBFC0F20F021FFF761
:1055800093FE02209F21FFF78FFE06E000F016FA3F
:1055900000F01CFA62B600F0C1F972B63378002B45
:1055A000F4D062B64FF44061C4F202014FF461429C
:1055B000CEF2000210204FF470534883C4F200036F
:1055C0004FF48031C2F880100022DA6172B64FF4D5
:1055D0006053C4F202031A6822F080621A6062B655
:1055E000DAF800000BF076FF00F0EEF8584601A95B
:1055F00000F000FC00F0FEF803B0BDE8F08F00F012
:10560000F9F80DF029F800F0F5F80DF025F872B66C
:1056100062B600F0D9F8584601A900F0EBFB00F0A3
:10562000E9F80DF019F8F3E700F0E4F80CF00AFBE4
:10563000EEE7EEE70002001010070010244B70B4F4
:105640001C89244D22B200F0040635F81210F6B27F
:10565000CA0806B1521800F00206F6B20EB102EB0B
:10566000510210F0010F18BF02EB910200F0080187
:10567000C9B2002924D0D9688A1ADA6047F6FF71C6
:105680008A42C8BFD9600ADC4FF40041CFF6FF71EF
:1056900012F5004FB6BFD96091B24FF400412818FF
:1056A00090F9B4201419A4B225B2002D0CDB582DAA
:1056B000D8BF1C8101DD58221A8108B270BC704726
:1056C000D9685218DA60D9E700221A81F5E700BFDD
:1056D0003407001050A6010803F0B6B808B572B63A
:1056E00005F0D4FC0F48104A1049121AFBF79AFA39
:1056F0000F48104A0021121AFBF784FB00F060FFEC
:10570000BFF34F8F4FF46D42CEF200020423D168F5
:10571000C0F2FA5301F4E0610B43D360BFF34F8F43
:10572000FEE700BF000200101007001000D30108C0
:1057300010070010B00A0010684620F007018D46DF
:1057400001B5054880F3098840F2020080F314880F
:10575000BFF36F8FFFF7C2FF000002200FB400B548
:1057600083B004AB53F8040B19460193FCF746FFD2
:1057700003B05DF804EB04B0704700BF10B572B61B
:10578000064C2378FF2B02D00133237010BD082074
:1057900000F0AEFC23780133237010BD48070010E1
:1057A00010B5084C237843B1013BDBB223701BB921
:1057B000044B5B7803B162B610BD052000F098FC85
:1057C0002378F1E74807001010B409490B1D53E88E
:1057D000002F531C0C1D44E800300028F6D1FE2A8F
:1057E00001DC10BC7047082010BC00F081BC00BF79
:1057F0004807001038B50E4C211D51E8005F6B1EA4
:1058000041E80032002AF7D1002D0CDD2378084A48
:105810000BB9012D00D038BD117A0029FBD01372CD
:10582000002300DFF7E7042000F062FCEEE700BF92
:105830004807001070B5094C00262546637A33B13D
:10584000FFF7C2FF6E7200F021FFFFF7D3FF04F0F5
:105850005DFCF3E7FFF7CEFF0CF0FEFE48070010FB
:10586000EFF31080D0F1010038BF0020704700BF77
:10587000036810491A89F0B48E6942F002021A8155
:10588000AEB1D0E90245D6E90223A24273EB050787
:1058900001DB0CE00E46316929B1D1E90223A242B5
:1058A00073EB0507F6DB01613061F0BC7047066100
:1058B0008861FAE7480700101749D1E9042330B49A
:1058C000012400258869121943EB0503C1E904236B
:1058D000D0B1D1E90445D0E90223AB4208BFA242CE
:1058E00008D017E0D1E90445D0E90223AB4208BF54
:1058F000A2420BD1036800691A8922F002021A81C0
:105900000028EFD18861012030BC7047024B9861BC
:105910000120F9E70020F7E748070010002300DF27
:10592000704700BF70B586B0002833D072B61A4EEB
:105930004FF47A72F36902FB00F09042009314D3A3
:10594000D6E90423D6E90445AB4208BFA242F7D109
:1059500044F6D351C1F26201A1FB00408009121844
:1059600043F10003CDE902230EE0D6E90423D6E992
:1059700004018B4208BF8242F7D101200021801828
:1059800041EB0301CDE902016846FFF771FF62B602
:10599000002300DF06B070BD4807001040F24873D6
:1059A000C1F20003D86970470088704772B6038956
:1059B00023F00103038162B6704700BF40F24873D1
:1059C000C1F20003D86970470088704740F24873FD
:1059D000C1F20003DB691A8942F001021A817047A3
:1059E000038923F001030381704700BF034610B50C
:1059F0000846984772B62149CB691A8902F010040B
:105A0000A4B242F004021A8194B9D3F884202AB1D6
:105A1000D3F88420118921F020011181C3F884007A
:105A200062B6002300DF0320BDE8104000F060BB39
:105A300001234B72F4E7012908D00BF0BFFC0920C9
:105A400000F056FB0BF000FD0020D3E70BF0B6FC96
:105A50000446092000F04CFB236820469B689847C9
:105A600001460748FFF77AFEECE70BF0EDFC0CF07F
:105A7000F3FD0BF0E9FC0CF0EFFD00BF4807001050
:105A8000D4B10108F0B5074600254560012083B078
:105A900038803D817D81FD603D61796107F11804A9
:105AA00007F1800644F8045BB442FBD1C7F88020BC
:105AB0007BB1134B1B68C7F888300023C7F88C30C4
:105AC000C7F89030C7F89430C7F88430384603B030
:105AD000F0BD50200193FAF76FFD019BC7F88800D5
