:020000040800F2
:1000000000020010E9960008BDC8000805C60008F7
:1000100041C600087DC60008B9C6000800000000FF
:100020000000000000000000000000002DDE0008BD
:10003000DDC70008000000004DC80008F1DD000821
:100040008996000889960008899600088996000814
:1000500089960008899600089994000889960008F6
:1000600089960008899600088996000889960008F4
:100070008996000889960008C58E000889960008B0
:1000800041D5000805D50008899600088996000822
:1000900089960008899600088996000889960008C4
:1000A00089960008899600088996000889960008B4
:1000B00089960008899600088996000889960008A4
:1000C0008996000889960008899600088996000894
:1000D0008996000851D400088DD40008C9D40008BE
:1000E0008996000889960008899600088996000874
:1000F0008996000889960008899600088996000864
:1001000089960008A9E100088996000889960008E8
:100110008996000889960008899600088996000843
:100120008996000889960008899600086DE1000804
:100130008996000889960008899600088996000823
:100140008996000889960008899600088996000813
:100150008996000889960008899600088996000803
:1001600089960008899600088996000889960008F3
:1001700089960008899600088996000889960008E3
:10018000899600088996000808B5062000F0E4FF6B
:1001900001200BF029FE00BF80B514460A4A1568FD
:1001A000064684B00F46E86854B1084D1A4608491F
:1001B000009733460195029400F05CF9FFF7E4FFE5
:1001C000044D2C46F2E700BFA89A010870AB010865
:1001D00080AB010824A0010808B513460022FFF7F0
:1001E000DBFF00BF30B405460C461346022029460B
:1001F000224630BC0BF0F6BD45F26121C0F600018D
:1002000000F04CB908B5838903F400731BB213B92D
:1002100060300AF01FF8002008BD00BF08B58389D0
:1002200003F400731BB213B9603009F0D9FF00204A
:1002300008BD00BF002310B504468181C281036060
:10024000436083608367036143618361194600F102
:100250007000082200F092FE41F2C923C0F60003AC
:10026000636241F2F923C0F60003A36241F2413315
:10027000C0F60003E36241F27933C0F60003246262
:10028000236310BD70B5CD010E4605F10C0100F0E1
:1002900063FA044640B100F10C00002184E84200FA
:1002A000A0602A4600F06AFE204670BD49F6A823E9
:1002B000C0F601031868FFF79FBF00BF40F6940027
:1002C000C1F2000009F08CBF40F69400C1F20000BA
:1002D00009F0C0BF014809F083BF00BFA4080010A7
:1002E000014809F0B7BF00BFA408001070B504466C
:1002F000FFF7F0FFA569002D2CD1184B1B689C421D
:1003000005D00123A361BDE87040FFF7E9BF144B9E
:10031000E5630126236225646564A661204600F03A
:1003200021F86060204600F01DF8A060204600F033
:1003300019F80421E0602A466068FFF77BFFA06897
:1003400008213246FFF776FFE06812210222FFF70C
:1003500071FFA661BDE87040FFF7C2BFA89A01080F
:10036000F901000870B582B001A9064601200AF023
:1003700019F8FFF7A3FF284B1D68AB69002B35D098
:100380003C356B68AC68013B04D52BE0013B803405
:100390005A1C27D0B4F90C20002AF7D14FF6FF736E
:1003A0000025E3810123A381A56725666566A5660F
:1003B000E566FFF789FF01A9019809F0F3FF2560C1
:1003C000A560656025616561A56104F1700029463D
:1003D000082200F0D3FD6563A563A564E5642046AB
:1003E00002B070BD2C682CB12546CAE72846FFF73D
:1003F0007DFFC5E730460421FFF744FF044628602F
:100400000028F1D1FFF760FF019801A909F0CAFFA8
:100410000C233360E3E700BFA89A010808B5FFF793
:100420004DFF0BF003FD40F21D21C0F60001BDE8B9
:10043000084000F033B800BF08B50BF0F7FC40F2FD
:100440000521C0F6000100F029F8BDE80840FFF7DB
:100450003BBF00BF0CB410B582B004AC54F8042B01
:100460002346019401F00AFC02B0BDE8104002B03E
:10047000704700BF0EB430B582B005AB054653F8E7
:10048000044B01930BF0D2FC29462246019B01F05C
:10049000F5FB02B0BDE8304003B070472DE9F041F4
:1004A00010F13C06884619D000277568B468013DF4
:1004B0000ED4A389013D43B1012B06D9B4F90E3006
:1004C0000133204601D0C047074380346B1CF0D174
:1004D0003668002EE9D13846BDE8F0813746384607
:1004E000BDE8F0812DE9F84310F13C0680468946CD
:1004F0001AD000277568B468013D0FD4A389013D67
:100500004BB1012B07D9B4F90E30013321464046D7
:1005100001D0C847074380346A1CEFD13668002EEB
:10052000E8D13846BDE8F88337463846BDE8F88359
:1005300030B50C4683B0054610B18369002B3CD022
:10054000244B9C423ED0244B9C423FD0234B9C42A8
:1005500002BF234B1B68DC68012001A909F022FFC0
:10056000A38903F400731BB2C3B16368013B002B82
:1005700063601CDB236813F8015B2360A38903F429
:1005800000731BB21BB904F1600009F063FE01980F
:1005900001A909F007FF284603B030BD04F160004F
:1005A00009F01EFE6368013B002B6360E2DA284617
:1005B000214600F047FE0546E0E7FFF797FE054BB2
:1005C0009C42C0D1064B1B685C68C5E7044B1B68A6
:1005D0009C68C1E7889A0108689A0108489A01084E
:1005E000A89A010830B583B004460BF01FFC20B177
:1005F0000BF01CFC8369002B2ED0274B9C4232D081
:10060000264B9C4243D0264B9C4202BF254B1B6885
:10061000DC68012001A909F0C5FEA38903F4007379
:100620001BB2002B23D06368013B002B636027DBE8
:10063000236813F8015B2360A38903F400731BB2E2
:100640001BB904F1600009F005FE019801A909F049
:10065000A9FE284603B030BD0BF0E8FBFFF746FECD
:100660000D4B9C42CCD10F4B1B685C68D1E704F169
:10067000600009F0B5FD6368013B002B6360D7DAC9
:100680000BF0D4FB214600F0DDFD0546D4E7054B19
:100690001B689C68BDE700BF889A0108689A01083A
:1006A000489A0108A89A0108F0B4124EB3685F682E
:1006B00027F003070F2FD4BF002101213A4602255E
:1006C00006EB8504E3689C4207D05868DB6820F09D
:1006D000030001319C420244F7D10235B5F5807F19
:1006E000EED1054B18685960801AD8611A625F62B2
:1006F000F0BC704778020010B8080010F8B540F65A
:10070000B8040646C1F2000408460F460BF08AFB07
:10071000FFF7CAFF0FCC35460FC50FCC0FC594E8C5
:10072000030085E8030038460BF07EFB3046F8BD39
:1007300010B504460BF07AFB2146BDE8104000F0EE
:100740000BB800BF10B504460BF070FB2146BDE8A6
:10075000104004F0B3BF00BF2DE9F04F01F10B05CD
:10076000162D83B006462CD925F00705EB0F8D42D8
:100770002CBF194643F0010100292BD130460BF064
:1007800051FBB5F5FC7F29D2B94F4FEAD50C07EBE9
:10079000CC03DC689C4200F0EE816368E268A168EB
:1007A00023F00303E318CA605868916040F0010029
:1007B000586030460BF038FB0834204603B0BDE8E3
:1007C000F08F002310258D422CBF194643F0010104
:1007D0000029D3D00C2333600024EEE75FEA552CC8
:1007E00004BF4FEAD50C4FEA4C0140F08480A04F83
:1007F00007EB8101CC68A14206D10DE0002B80F20D
:100800003B81E468A14207D0626822F00302531BD7
:100810000F2BF3DD0CF1FF3C0CF1010C944B3C6908
:1008200003F1080E744508BFD3F8049022D0616824
:1008300021F003014A1B0F2A00F36A81002AC3F842
:1008400014E0C3F810E061DAB1F5007F80F0368182
:10085000CA0803EBC2014FF00109921009FA02F92C
:100860005A688868E16049EA0209A060C3F8049008
:100870008C60C46001204FEAAC0300FA03F04845E5
:100880004ED819EA000F07D12CF0030C400019EAEA
:10089000000F0CF1040CF9D007EBCC094C46E046F4
:1008A000E3689C4207D146E1002A80F26E81DB6852
:1008B0009C4200F04081596821F003014A1B0F2A35
:1008C000F2DD1C465919D86854F808CF8A5045F013
:1008D000010542F00102CCF80C00C0F808C05D60D0
:1008E00079613961C1F80CE0C1F808E04A6030462E
:1008F0000BF09AFA61E7BCF1040F00F2CB804FEAEB
:10090000951C0CF1380C4FEA4C0170E76118304629
:100910004B6843F001034B600BF086FA08344CE758
:10092000BC68636823F003094D4504D8C5EB09038F
:100930000F2B00F38F80DFF83CA1D7F80834DAF8EA
:100940000010013329441BBF01F20F4121F47F7BCA
:1009500001F1100B2BF0030B04EB09023046594652
:1009600001920BF045FAB0F1FF3F8046019A00F08A
:100970005381824200F21F81DAF8043042455B4421
:10098000CAF8043000F05181D7F8081401310DBFC6
:10099000374BC2EB08029B18C3F8088418BFCAF88B
:1009A000043018F007021CBFC2F10803984408EB9A
:1009B0000B0314BFC2F581624FF480629B059B0D4F
:1009C000C3EB020B304659460BF012FA431C00F001
:1009D0003881C8EB00025A4442F00102DAF80430D0
:1009E000C7F808805B44BC42CAF80430C8F8042049
:1009F00015D0B9F10F0F40F2FE806268A9F10C0129
:100A000021F00701601802F0010E41EA0E0E0522E6
:100A10000F29C4F804E04260826000F21681DAF81F
:100A20002C20BC68934284BF124AD362DAF830208B
:100A3000934284BF0F4A1363626822F00302954217
:100A4000C5EB020301D80F2B04DC30460BF0ECF9A8
:100A50000024B2E6621943F0010345F00105656028
:100A600030465360BA600BF0DFF90834A5E600BFEA
:100A700078020010B4080010A218E3685068A1685A
:100A800040F001005060CB60996030460BF0CCF92B
:100A9000083492E6BCF1140F9CBF0CF15B0C4FEADA
:100AA0004C017FF6A4AEBCF1540F00F28D804FEAEA
:100AB000153C0CF16E0C4FEA4C0198E64B0A042BE6
:100AC00072D9142B9CBF03F15B094FEA490008D986
:100AD000542B00F2C2804FEA113909F16E094FEA36
:100AE000490007EB8000DFF8B4818368834275D04A
:100AF0005A6822F00302914202D29B689842F7D1D1
:100B0000D968D7F80490E160A360DC608C60B1E63E
:100B1000611942F0010045F00105656059611961F4
:100B20004860C1F80CE0C1F808E08A5030460BF08C
:100B30007BF9083441E608F10108083418F0030F86
:100B40007FF4AEAE4B461CF0030FA3F108020CF18C
:100B5000FF3C00F09A801B689342F4D07B68400011
:100B600098423FF6DDAE00283FF4DAAE034200F0D3
:100B70009180C44690E604F108036469A34208BF6B
:100B80000CF1020C3FF44AAE07E659181C464868BF
:100B9000DB6854F8082F40F001004860D3609A6089
:100BA00030460BF041F908E64FEA911909F138098E
:100BB0004FEA490095E7BC423FF4DEAE374B9C68F4
:100BC000626822F003023AE7BCF5AA7F19D84FEA1F
:100BD000D53C0CF1770C4FEA4C0108E6D8F804201C
:100BE0004FEAA909012101FA09F141EA0209C8F80D
:100BF0000490194687E70123C8F8043044460022D0
:100C00001DE740F254539C450BD84FEA954C0CF12C
:100C10007C0C4FEA4C01EAE5BC68626822F00302F2
:100C20000DE7FC214FF07E0CE1E59105890D0029CF
:100C30007FF4AAAEBA680BEB090141F001015160E3
:100C4000EDE601224FF0000BC8E6304604F1080142
:100C500004F034FD124B5B68E1E6B3F5AA7F06D8D9
:100C60004FEAD13909F177094FEA490039E740F2F3
:100C70005452FC2093424FF07E099EBF4FEA9149A7
:100C800009F17C094FEA49002BE77B6823EA00035E
:100C90007B6064E7400008F1040867E77802001011
:100CA000B4080010830770B4C9B240D0541E002AA3
:100CB0003FD003788B4221D0431C04E004B3027878
:100CC000013C8A421AD013F0030F184603F10103C6
:100CD000F4D1032C16D8651E94B103788B420DD045
:100CE000421C002302E004788C4207D09D4210464B
:100CF00003F1010302F10102F5D1002070BC70473D
:100D00002046FBE741EA012646EA06460246043051
:100D100013687340A3F1013525EA030313F0803F04
:100D200003D1043C032CF1D8D5E71046D3E7144691
:100D3000CFE71046E2E700BF032A70B422D941EAA8
:100D400000039B0713D005780C78013A0023A542D5
:100D500006D01BE010F8015F11F8014FA54215D134
:100D6000934203F10103F5D1002070BC70470D6878
:100D700006680C46034604310430AE4208D1043AFA
:100D8000032AF4D8002ADED11046EEE7281BECE750
:100D900021461846002AD6D1F6E700BF0F2AF0B444
:100DA0003FD941EA00039B073DD10C460346154657
:100DB00026681E6066685E60A6689E60E668103DF4
:100DC000DE60103410330F2DF2D8A2F1100525F09B
:100DD0000F0502F00F041035032C00EB0503294426
:100DE00023D9043C4FEA940C01EB8C070C460437E2
:100DF0001D4654F8046BBC4245F8046BF9D10CF164
:100E00000104A40002F0030209191B193AB10139C7
:100E10009A1811F8014F03F8014B9342F9D1F0BC35
:100E200070470346F2E70346F1E72246EEE700BFCC
:100E30008842F0B411D98C18A0420ED28518531EE6
:100E40004AB121462A4611F8014D013BB3F1FF3F5B
:100E500002F8014DF7D1F0BC70470F2A3FD941EAA3
:100E600000039B073DD10C460346154626681E60CD
:100E700066685E60A6689E60E668103DDE601034BD
:100E800010330F2DF2D8A2F1100525F00F0502F056
:100E90000F041035032C00EB0503294423D9043C2F
:100EA0004FEA940C01EB8C070C4604371D4654F8AE
:100EB000046BBC4245F8046BF9D10CF10104A400A9
:100EC00002F0030209191B19002AC4D001399A182B
:100ED00011F8014F03F8014B9342F9D1BBE70346E8
:100EE000F2E70346F2E72246EEE700BF531E70B476
:100EF0000446C018451C15F0030FC9B23BD0FAB127
:100F0000E25C8A421DD0024605E0E3B112F8014DD1
:100F1000013B8C4215D0013812F0030FF5D1032BA1
:100F200013D85A1E7BB103788B420AD0431E03E0CC
:100F30000478013A8C4204D01846013B002AF7D1CC
:100F4000104670BC70471846FBE741EA012646EAA6
:100F50000646C21E1046043A04687440A4F10135E6
:100F600025EA040414F0803F03D1043B032B104610
:100F7000F0D80330D5E71346D1E700BF70B484073B
:100F8000034642D0541E002A3DD0CEB203E0621E7A
:100F9000002C38D0144603F8016B9A071D46F6D191
:100FA000032C29D9CAB20F2C42EA022242EA024299
:100FB00084BF2B46264611D9103E1A605A609A60AB
:100FC000DA6010330F2EF7D8A4F1100323F00F03CB
:100FD00004F00F041033032C1D440DD92E46234674
:100FE000043B032B46F8042BFAD8231F23F00303FA
:100FF000043304F00304ED182CB1C9B22C1905F820
:10100000011BA542FBD170BC704705461446C7E7DB
:101010000EB410B5044683B018B183690BB9FFF75D
:1010200065F9074A126806AB9168059A0193204654
:1010300001F0AEFC03B0BDE8104003B0704700BF44
:10104000A89A01080FB410B582B00AF0EFFE04466A
:1010500018B183690BB9FFF749F9074A126805AB64
:101060009168049A0193204601F092FC02B0BDE819
:10107000104004B0704700BFA89A010830B505467B
:1010800089B008460C4600F055FD264A0494431CDE
:10109000039304AB06920193012202230590079269
:1010A000029315B1AB69002B37D01F4B1B689C68AE
:1010B0000120694609F076F9A38903F4007212B29F
:1010C000002A24D003F4005212B232B9A26F43F4C2
:1010D000005322F40052A381A2672846214601AAA8
:1010E00004F0B4FBA38903F400731BB200280CBF07
:1010F0000A254FF0FF351BB904F1600009F0AAF88A
:101100000098694609F04EF9284609B030BD04F14F
:10111000600009F065F8A389D4E72846FFF7E6F8F0
:10112000C3E700BF74A00108A89A010810B50446DF
:101130000AF07CFE2146BDE81040FFF79FBF00BFCC
:1011400038B50C4605460AF09DFE22460146284663
:10115000BDE838400AF08EBE10B504460AF066FEBF
:101160002146BDE81040FFF7EBBF00BF38B50C4685
:101170000968054609B1FFF7F9FF28462146BDE891
:10118000384004F09BBA00BF2D4B1B68984270B5E5
:10119000054654D0C369EBB1DA68B2B100231E46EC
:1011A00052F8231041B10C68284604F087FA214612
:1011B000002CF8D1EB69DA680136202E3346EFD1E6
:1011C0002846114604F07AFAEB69196811B12846ED
:1011D00004F074FA696911B1284604F06FFAE969FC
:1011E00011B1284604F06AFA296B11B1284604F0BF
:1011F00065FA696B11B1284604F060FAA96B11B168
:10120000284604F05BFAE96C11B1284604F056FA5E
:10121000A96C11B1284604F051FAE96A11B12846C7
:1012200004F04CFAAB6953B12B6A0BB128469847CE
:10123000E96B21B12846BDE87040FFF797BF70BD4C
:101240002402001038B50C46054608B18369C3B1C5
:10125000144B9C421AD0144B9C421BD0134B9C4203
:1012600002BF134B1B68DC682846214605F0E0FBF3
:10127000A0B962682368013A626013F8010B236029
:1012800038BDFFF733F8074B9C42E4D1084B1B688D
:101290005C68E9E7064B1B689C68E5E74FF0FF30A8
:1012A00038BD00BF889A0108689A0108489A010869
:1012B000A89A010810B504460AF0B8FD2146BDE819
:1012C0001040FFF7BFBF00BF10B50C46B1F90E10BC
:1012D0000AF03CFF002807DBD4E91623121843EB81
:1012E000E073C4E9162310BDA38923F48053A381BE
:1012F00010BD00BF00207047F0B50C46898901F48D
:10130000807C0FFA8CFC83B0074616461D46BCF164
:10131000000F08D00223B4F90E100093002200231E
:101320000AF0BEFEA18921F48051A181B4F90E100A
:10133000384632462B4603B0BDE8F0400AF05ABFAB
:1013400010B582B00C460093B1F90E10D3170AF015
:10135000A7FEA389B1F1FF3F08BFB0F1FF3F04BF73
:1013600023F48053A38104D0C4E9160143F48053CD
:10137000A38102B010BD00BFB1F90E100AF05CBD30
:10138000C9B2F0B400294BD082070FD00378002BEC
:1013900071D0994242D0431C05E013F8012B002A7A
:1013A0003BD091423AD09A071846F6D10368A3F190
:1013B000013222EA030241EA012712F0803F47EAA4
:1013C00007471CD17B40A3F1013222EA030313F04B
:1013D000803F14D1021D02E014F0803F0FD110466F
:1013E00052F8043BA3F1013687EA030426EA03031B
:1013F000A4F1013513F0803F25EA0404ECD0037812
:10140000002B38D0994209D0431C01E0914205D00D
:10141000184613F8012B002AF8D11046F0BC70478B
:1014200083070BD00378002BF8D0431C03E002782D
:101430000133002AF2D099071846F8D10368A3F1C6
:10144000013222EA030313F0803F0AD1021D104645
:1014500052F8041BA1F1013424EA010111F0803F8C
:10146000F5D00378002BD9D0431C184601330278FD
:10147000002AFAD1D2E71846D0E700BF40EA010CB3
:101480001CF0070F40F02380BDF1100DCDE902459F
:10149000CDE900676FF000064FF00007F0E8022387
:1014A000F1E80245A24282FA46FCA7FA86FC08BF90
:1014B000BCF1000F40F0ED80AB4283FA46FCA7FA86
:1014C00086FC08BFBCF1000F40F0DF80E6E710F0BB
:1014D000030C00F0278020F0030050F8042B5FEA93
:1014E000CC7C00F00B8080F0128011F801CB5FFA09
:1014F00092F3B3EB0C0C40F013808BB111F801CBDD
:101500005FFAA2F3B3EB0C0C40F00A8043B111F880
:1015100001CB5FFAB2F3B3EB0C0C40F001800BB9D6
:1015200060467047BDF1100DCDE90245CDE9006779
:101530006FF000064FF0000711F0030C40F031800F
:1015400010F0040F00F00E8050F8042B51F8044BFB
:10155000A24282FA46FCA7FA86FC08BFBCF1000F43
:1015600040F0978011F0040F3FF498AF51F8045BFE
:10157000F0E80223AA4282FA46FCA7FA86FC08BFDA
:10158000BCF1000F40F07D80F1E80245A34283FAF0
:1015900046FCA7FA86FC08BFBCF1000F40F06D8046
:1015A000E6E721F00301BCF1020F00F0228080F297
:1015B000408051F8045B00BF50F8043B4FEA15250A
:1015C00083FA46FCA7FA86FCB7EB0C2F03EA162237
:1015D00008BFAA4240F0558051F8045BBCF1000FEF
:1015E00082EA03034FEA056208BF934240F041805C
:1015F000E2E751F8045B00BF50F8043B4FEA1545A1
:1016000083FA46FCA7FA86FCB7EB0C4F03EA1642B6
:1016100008BFAA4240F0358051F8045BBCF1000FCE
:1016200082EA03034FEA054208BF934240F021805B
:10163000E2E751F8045B00BF50F8043B4FEA156540
:1016400083FA46FCA7FA86FCB7EB0C6F03EA166236
:1016500008BFAA4240F0158051F8045BBCF1000FAE
:1016600082EA03034FEA052208BF934240F001805B
:10167000E2E719BA12BA00F00EB819BA22BA00F0AD
:101680000AB811BA2ABA00F006B819BA2ABA00F094
:1016900002B811BA22BA9CFA8CF0DDE90067DDE9E4
:1016A00002451DF1100D38B1B0FA80F0C0F11800FC
:1016B00021FA00F122FA00F20120914298BF804104
:1016C000704700BF80EA0102844612F0030F4FD139
:1016D00011F0030F32D14DF8044D11F0040F51F801
:1016E000043B0BD0A3F101329A4312F0803F04BFB8
:1016F0004CF8043B51F8043B16D100BF51F8044BA1
:10170000A3F101329A4312F0803FA4F101320BD1D0
:101710004CF8043BA24312F0803F04BF51F8043B55
:101720004CF8044BEAD023460CF8013B13F0FF0FB2
:101730004FEA3323F8D15DF8044B704711F0010FE5
:1017400006D011F8012B0CF8012B002A08BF7047B6
:1017500011F0020FBFD031F8022B12F0FF0F16BFAD
:101760002CF8022B8CF8002012F47F4FB3D1704775
:1017700011F8012B0CF8012B002AF9D1704700BF9A
:1017800010B504468E2900F2A381DFE811F09F0115
:101790009D019B01990197019501930191018F0191
:1017A0008D018B010B01090107010501A101030155
:1017B0000101FF00FD00FB00F900F700F500F30058
:1017C000F100EF00ED00EB00E900E700E500E300C9
:1017D000E100DF00DD00DB00A101A101A101A10109
:1017E000A101A101A101A101D900D700A101A1017D
:1017F000A101A101A101A101A101A101A101A101D9
:10180000A101A101A101D500A101D300D100A10135
:10181000A101A101CF00A101A101A101CD00A10160
:10182000A101CB00A101A101C900A101A101A10158
:10183000A101A101A101A101A101A101A101C70073
:10184000A101C500C300C100A101A101BF00A10108
:10185000A101A101A101A101A101A101A101A10178
:10186000BD00BB00B900B700B500A101B300B100D5
:10187000AF00AD00AB00A900A700A500A300A10028
:101880009F009D009B00A101A101A101990097006B
:10189000A101A101A101A101A1019500A101A10145
:1018A000A101A101A101930091008F003E4810BD4C
:1018B0003E4810BD3E4810BD3E4810BD3E4810BDDC
:1018C0003E4810BD3E4810BD3E4810BD3E4810BDCC
:1018D0003E4810BD3E4810BD3E4810BD3E4810BDBC
:1018E0003E4810BD3E4810BD3E4810BD3E4810BDAC
:1018F0003E4810BD3E4810BD3E4810BD3E4810BD9C
:101900003E4810BD3E4810BD3E4810BD3E4810BD8B
:101910003E4810BD3E4810BD3E4810BD3E4810BD7B
:101920003E4810BD3E4810BD3E4810BD3E4810BD6B
:101930003E4810BD3E4810BD3E4810BD3E4810BD5B
:101940003E4810BD3E4810BD3E4810BD3E4810BD4B
:101950003E4810BD3E4810BD3E4810BD3E4810BD3B
:101960003E4810BD3E4810BD3E4810BD3E4810BD2B
:101970003E4810BD3E4810BD3E4810BD3E4810BD1B
:101980003E4810BD3E4810BD3E4810BD3E4810BD0B
:101990003E4810BD3E4810BD3E4810BD3E4810BDFB
:1019A0003E4810BD3E4810BD84B101086CB101082D
:1019B00058B1010860AE010824B101083CB101082A
:1019C00098AF0108BCB1010890AC010858AC0108FF
:1019D00060AD010834AE010850AD0108D0B1010876
:1019E000A4AD010814AF010800B10108E8B0010876
:1019F000D4B00108BCB001089CB001087CB001085B
:101A00004CB0010830B0010898B1010818B00108C5
:101A1000FCAF0108E8AF0108CCAF0108C0AF010876
:101A2000ACAF010888AF010870AF01085CAF0108D6
:101A300044AF010834AF01082CAF010808AF01081A
:101A4000F4AE0108D8AE0108C4AE0108B4AE010876
:101A5000A8AE010898AE010880AE010870AE01087A
:101A600048AE010824AE010814AE0108FCAD01081F
:101A7000E8AD0108C8AD010890AD010880AD0108CE
:101A800040AD010830AD01081CAD010810AD0108E2
:101A9000F8AC0108ECAC0108D8AC0108C4AC0108F2
:101AA000B0AC0108114810BD114810BD114810BD5F
:101AB000114810BD114810BD114810BD114810BD8E
:101AC000114810BD114810BD114810BD114810BD7E
:101AD00008461146002B14BF1A46224600F08EF825
:101AE0000D4B002808BF184610BD00BF84AC01088C
:101AF00074AC010844AC010830AC010814AC010816
:101B000008AC0108F0AB0108E0AB0108C4AB010868
:101B1000B8AB0108B0AB010824A0010810B5044619
:101B20000AF084F9002221461346BDE81040FFF771
:101B300027BE00BF20F0030110F00300C0F1000039
:101B400051F8043B00F1040C4FEACC0C6FF000029A
:101B50001CBF22FA0CF213434FF0010C4CEA0C2C80
:101B60004CEA0C4CA3EB0C0222EA030212EACC1260
:101B700004BF51F8043B0430F4D013F0FF0F1FBF33
:101B8000013013F47F4F013013F47F0F18BF013081
:101B9000704700BF0A4665210AF0DCB9012908B583
:101BA00013D002290CD021B96721BDE808400AF002
:101BB000D1B903F0C9FA162303604FF0FF3008BD16
:101BC0006821BDE808400AF0C5B96621BDE80840B3
:101BD0000AF0C0B9806820F07F40704703460020BB
:101BE0009A6802F07F421143996070476421002295
:101BF0000AF0B0B90A4669210AF0ACB90020704772
:101C000093682DE9F047914607460E4673B38C6FF3
:101C100014F4005F2ED0126802F1080A5AF8042C5E
:101C20005AF8085C5FEA920816D0043D002401E0EF
:101C3000A0450FD0384655F8041F324603F034FC57
:101C40000134431CF4D10023C9F80830C9F804302A
:101C5000BDE8F087D9F80830A3EB8803C9F808304D
:101C60000AF1080A002BD9D11846ECE75360184650
:101C7000BDE8F08703F0EAFDE5E700BF2DE9F04F8E
:101C8000AFB01D46884614460793049018B1836987
:101C9000002B00F07C81A74B984500F07E81A64B7D
:101CA000984500F06E85A54B984502BFA44B1B6874
:101CB000D3F80C80012010A908F074FBB8F80C20B0
:101CC00002F400731BB2002B00F0258102F40053D4
:101CD0001BB24BB9D8F8783042F4005223F40053C9
:101CE000A8F80C20C8F8783002F008031BB2002BCB
:101CF00000F0ED80D8F81030002B00F0E88002F002
:101D00001A030A2B00F0F08000231EA90DF1770AB8
:101D10008C4601910B93119113931293002023464B
:101D2000CAEB0101CDF80880CDF800A003900D9119
:101D30006446984698F80030002B18BF252B00F019
:101D40004F8408F10102154601322B78252B18BF6C
:101D5000002BF8D1B5EB08060FD0129A1399C4F8EE
:101D600000800132891966600834072A13911292A3
:101D700000F3D880039A921903922B78002B00F07D
:101D80006F850023194605F101088DF83B304FF0AF
:101D9000FF3B6B7806910D4608F10108A3F1200284
:101DA000582A00F2D081DFE812F0F802CE01CE010D
:101DB000C702CE01CE01CE01CE01CE01CE01CC02B2
:101DC000DB02CE0111014702CE016F0274027402E0
:101DD0007402740274027402740274027402CE01FA
:101DE000CE01CE01CE01CE01CE01CE01CE01CE017B
:101DF000CE018502CE01CE01CE01CE01CE01CE01B3
:101E0000CE01CE01CE01CE017400CE01CE01CE01B5
:101E1000CE01CE015900CE01CE019E02CE01CE01EF
:101E2000CE01CE01CE01CE01CE01CE01CE01CE013A
:101E3000B502FF01CE01CE01CE011E02FF01CE018F
:101E4000CE012302CE0130027600DF024202CE0133
:101E5000FF02CE015B00CE01CE01160145F0100558
:101E6000AE06DDF81CA000F18F81E80600F1C78204
:101E7000690640F1C482BAF80060002756EA0700FC
:101E80000AF1040A0CBF00220122CDF81CA0012394
:101E9000BDE045F0100515F02003DDF81CA040F072
:101EA000638115F0100140F0B78215F0400300F097
:101EB000B382BAF80060002756EA07000AF1040A64
:101EC0000CBF00220122CDF81CA00B469FE0049815
:101ED000414602F0AFF8002864D1B8F80C2002F0B7
:101EE0001A030A2B7FF410AFB8F90E30002BFFF65F
:101EF0000BAF02F400731BB2002B00F0958410A905
:101F0000109808F04FFA0498414622462B4600F0FC
:101F1000F1FC039037E008F1600008F061F9B8F8CF
:101F20000C20D3E60498029911AAFFF769FE88B93C
:101F30001EAC1FE7889A0108689A0108489A0108B0
:101F4000A89A01080498029911AAFFF759FE0028DF
:101F500000F03C83DDF80880B8F80C3003F400731F
:101F60001BB2002B00F0C083109810A908F01AFAD9
:101F7000B8F80C30039803F040031BB2002B18BFD5
:101F80004FF0FF30039003982FB0BDE8F08FFEF7BD
:101F9000ADF9B94B98457FF482AEB84B1B68D3F8C6
:101FA000048087E6B8F80C3003F400731BB2002BF2
:101FB00000F02082109810A908F0F4F94FF0FF30DB
:101FC0000390E0E7069B07925B42069345F0040509
:101FD00098F80030E0E6AA488DF83B10AA060B906E
:101FE000DDF81CA040F188810AF1070222F0070207
:101FF000D2E9006702F1080ACDF81CA0E80700F159
:10200000A78356EA07000CBF0022012202234FF0EB
:1020100000098DF83B90BBF1000FA8BF25F08005AB
:10202000BBF1000F18BF42F00102002A00F0DB8272
:10203000012B00F08183022B00F05F830DF177000C
:10204000DC464FF0070AF10806EA0A0241EA477146
:1020500030324FEAD70E0E46D2B2774603460270B0
:10206000013856EA070BECD1E9070993E34600F182
:1020700091830198C71ACDF814B0059EB742A8BF46
:102080003E46B9F1000F00D0013615F0020318BF2B
:10209000023615F08409089340F0CA810698C6EB11
:1020A000000BBBF1000F40F3C381764B1399129ADA
:1020B0000A93BBF1100F2FDD584623460C95CB46F3
:1020C0004FF0100AB946049C029D3746064601E0CF
:1020D000102E1ADD49F6AC200132C0F60100103195
:1020E000103E83E801040833072A13911292EFDDB2
:1020F0002046294611AAFFF783FD002840F03E83C1
:10210000102E1399129A1EABE4DC1C460C9D33462C
:102110003E464F46D9469B460A9B0132594484E8C5
:1021200008080834072A1391129240F38381049817
:10213000029911AAFFF764FD00287FF40BAF1399F1
:10214000129A1EAC76E18DF83B10002B00F08883CC
:102150008DF85030002301268DF83B3014AB374604
:1021600009930023059390E70AF1070323F007037F
:10217000D3E9006703F1080356EA070007930CBF91
:1021800000220122002342E70AF1070323F007039C
:10219000D3E9006703F1080356EA070007930CBF71
:1021A00000220122012332E7AB068DF83B10DDF857
:1021B0001CA040F188800AF1070121F00701D1E954
:1021C00000230831079116461F46002A73F10000CC
:1021D000C0F20A8356EA07010CBF002201229DF8D3
:1021E0003B90012317E745F0400598F80030D3E510
:1021F00098F8003042466C2B03BF08F1010845F007
:102200002005537845F01005C6E5A8068DF83B106B
:1022100040F1F882DDF81CA0039ADAF80030D117FB
:102220000AF1040A1A605960CDF81CA082E545F055
:10223000200598F80030AFE5404610F8013B2A2B06
:1022400000F04083A3F13002092A84BF80464FF09A
:10225000000B3FF6A3AD4FF0000B10F8013B0BEB6A
:102260008B0B02EB4B0BA3F13002092A8046F4D909
:102270004BEAEB7B92E500BF889A0108A89A010817
:10228000FCB10108AC9A010845F0800598F80030CF
:1022900082E540460022A3F1300710F8013BA3F18C
:1022A000300602EB8202092E07EB42028046F2D989
:1022B000069273E545F01005AB068DF83B10DDF88E
:1022C0001CA03FF578AFEF0602D46E0600F1C58280
:1022D000DAF800301E46F7170AF1040A32463B4688
:1022E000CDF81CA071E798488DF83B10AA060B901A
:1022F000DDF81CA03FF578AEEF0600F136826E06E1
:1023000040F13382BAF800600AF1040ACDF81CA04B
:10231000002773E6079BDDF81CB01B68002201262E
:102320000BF1040B8DF8503014AB8DF83B20CDF839
:102330001CB03746099314E745F0010598F80030C2
:102340002AE5079ADDF81CA0126806920698002874
:102350000AF10402FFF636AE98F8003007921BE54A
:1023600098F800302B2117E5079BDDF81CA01A68B0
:102370007648302300278DF83C30164678230AF142
:10238000040AD21B8DF83D3018BF0122CDF81CA0E5
:1023900045F002050B90022339E698F80030002939
:1023A0007FF4FAAC2021F7E4079B07981B6800260E
:1023B000099300F1040A8DF83B60002B00F0658260
:1023C000BBF1000F0998C0F2538231465A46FEF71E
:1023D00069FC002800F06582099B9DF83B90CDF8D0
:1023E0001CA0C71A5F45C4BF5F4605963FF745AEC0
:1023F000059642E608F1600007F02CFFDAE5DAF80E
:102400000020002716460AF1040AD21B18BF012239
:10241000CDF81CA00123FAE5DAF8002000271646C3
:102420000AF1040AD21B18BF0122CDF81CA0EEE568
:102430001399129A9DF83B3063B10DF13B030132C1
:1024400023600123013163600834072A139112923B
:1024500000F33281089B5BB10FAB01322360022392
:10246000023163600834072A1391129200F330811D
:10247000B9F1800F00F0C480059BC7EB030ABAF1E5
:10248000000F43DDBAF1100FDFF8C8902ADD534684
:1024900048460595BA46B1464FF0100B049D0646D6
:1024A0001F4601E0102F16DD01321031103F84E885
:1024B00040080834072A13911292F3DD2846029946
:1024C00011AAFFF79DFB00287FF444AD102F13994C
:1024D000129A1EACE8DC3B463046059D57464E46F8
:1024E0009A4681460132514484E800060834072A9E
:1024F000139112920ADD0498029911AAFFF780FB4A
:1025000000287FF427AD1399129A1EAC099B013263
:10251000C91984E888000834072A1391129200F33D
:10252000BC806B0748D50698851B002D44DD084B01
:10253000129A0A93102D2DDD1027DDF81090DDF88A
:1025400008A00B460AE000BFE8B10108FCB1010891
:10255000AC9A0108BC9A0108102D1ADD49F6AC208E
:102560000132C0F601001033103D84E881000834C8
:10257000072A13931292EFDD4846514611AAFFF73E
:102580003FFB002840F00381102D139B129A1EACD4
:10259000E4DC194601320A9B12926918072A84E882
:1025A0002800139108DD0498029911AAFFF728FB6F
:1025B00000287FF4CFAC13990398069A9642ACBFDB
:1025C00080198018039000297FF4BCAC002312937B
:1025D00098F80030002B18BF252B1EAC7FF4B1AB50
:1025E0004546FFF7CABB002B62D1EA0740F1818064
:1025F00030238DF877300DF177030D9F09933AE57D
:102600000698C6EB000ABAF1000F7FF735AFBAF1B2
:10261000100FDFF8DC922ADD534648460895BA468B
:10262000B1464FF0100B049D06461F4601E0102FE7
:1026300016DD01321031103F84E840080834072AC3
:1026400013911292F3DD2846029911AAFFF7D8FAE6
:1026500000287FF47FAC102F1399129A1EACE8DC8F
:102660003B463046089D57464E469A4681460132C3
:10267000514484E800060834072A139112927FF728
:10268000FBAE0498029911AAFFF7BAFA00287FF46A
:1026900061AC1399129A1EACEEE60498029911AA45
:1026A000FFF7AEFA00287FF455AC13991EAC38E75B
:1026B0001EAB17460993DEE40498029911AAFFF7AE
:1026C0009FFA00287FF446AC1399129A1EACC1E61B
:1026D0000498029911AAFFF793FA00287FF43AAC04
:1026E0001399129A1EACC3E608F1600007F0B2FD20
:1026F0003AE41F461EAB0993BDE4DDF82CE0CDF8AB
:1027000014B00DF177014FF00F0A06EA0A02724485
:10271000330943EA07734FEA171C12781E466746CF
:1027200008460A70013956EA070BECD10199099065
:10273000DDF814B00F1A9EE4002F08BF0A2E32D223
:1027400030360DF177038DF877600D9F099392E491
:1027500056EA070164D030228DF83C208DF83D30D8
:1027600045F002050122022351E4DAF800200AF1C3
:10277000040A16460027CDF81CA03FE4A846FFF740
:10278000EBBB594B1B68D3F80880FFF793BAD046D0
:10279000FFF7E2BB302A73D001990990302203F889
:1027A000012C0F1A67E40DF1770A05945446304660
:1027B00039460A22002304F0C3FF3032227030462B
:1027C00039460A22002304F0BBFF06460F4656EAAC
:1027D0000700A24604F1FF34E9D10199CDF824A005
:1027E000059CCAEB010746E4764267EB470756EAC9
:1027F00007024FF02D090CBF002201228DF83B90FB
:10280000012308E4E90615D5DDF81CB00398DBF8D0
:1028100000300BF1040BCDF81CB01860FFF78ABA3A
:1028200000220223FFF7F3BB08F1600007F012FD5E
:10283000FFF765BBDDF81CA06A06DAF800304ABF76
:10284000DDF80CB00398A3F800B00AF1040ACDF843
:102850001CA058BF1860FFF76DBABAF900603AE5DE
:10286000139BDDF8088023BB00231293FFF774BB92
:10287000FFF760F99DF83B90CDF81CA00746B7E53F
:102880000199099BCF1AFFF7F6BB184BCDF81CA096
:10289000BBF1060F34BF5F46062727EAE7760993A8
:1028A0005FE49DF83B90CDF81CA05F460590FFF7D4
:1028B000E4BB0498414611AAFFF7A2F90028D3D03F
:1028C000FFF74ABBDDF81CA098F80130DAF800B039
:1028D0000AF10402BBF1000F07928046B8BF4FF027
:1028E000FF3BFFF759BA00BFA89A010810B20108D0
:1028F000BC9A01082DE9F0470C46E0B0256AB1F812
:102900000CA00895896FA56AB4F80E901E91002658
:102910004FF480770A952AF0020A20AD69460095A7
:1029200004958046ADF80CA0ADF80E90029705977F
:102930000696189619961A961B96FFF79FF9051E8C
:1029400007DB4046694602F045FDB04218BF4FF034
:10295000FF35BDF80C3003F040031BB21BB1A38957
:1029600043F04003A38118A807F034FC284660B068
:10297000BDE8F08770B50D461446064609F056FAD4
:1029800031462A462346BDE87040FFF777B900BFBD
:102990002DE9F04FC5B01D468B461446814603F025
:1029A0001DF900681390FFF7C5F80021149000206E
:1029B0000D95CDE91601B9F1000F04D0D9F8183002
:1029C000002B00F014819B4B9B4500F017819A4B24
:1029D0009B4500F08586994B9B4502BF984B1B6831
:1029E000D3F80CB0012020A907F0DCFCBBF80C30B8
:1029F00003F4007212B2002A00F0E88003F40052DF
:102A000012B24AB9DBF8782043F4005322F40052A2
:102A1000ABF80C30CBF8782003F0080212B2002A91
:102A200000F0BA80DBF81020002A00F0B58003F037
:102A30001A020A2A00F0E7800DF1D0080DF1CF0547
:102A400000230495C5EB080506940F93CDF89C80F0
:102A5000299328931993189309931B954446CDF80D
:102A60001C90CDF820B0069D2B78252B18BF002B8D
:102A700000F044846A1C174601323B78252B18BFAE
:102A8000002BF8D1069DB7EB050910D0289D299E93
:102A90000698C4F80490013520604E440834072D90
:102AA0002996289500F39980099D4D4409953B7816
:102AB000002B01F0AB807D1C069500234FF0FF3A00
:102AC0000025069A0B938DF8773005957B782020AA
:102AD0002B21574699460132A9F12003582B00F2C9
:102AE0006381DFE813F0CE0161016101F40161014E
:102AF000610161016101610161014102B90061018E
:102B0000B300D7016101F002C802C802C802C802BE
:102B1000C802C802C802C802C8026101610161019D
:102B20006101610161016101610161016101D9021C
:102B30004D0261014D026101610161016101840287
:102B40006101610195026101610161016101610140
:102B5000AF0261016101FA0161016101610161017D
:102B60006101610161016101610161010D021F02E9
:102B70004D024D024D023B021F0261016101F6024E
:102B8000610100030E032303BD006101C300610165
:102B9000F3006101610145014846594601F04AFAD6
:102BA000BBF80C3000283FF442AF03F400731BB2B3
:102BB000002B00F06787209820A94FF0FF3407F022
:102BC000F1FB0994099845B0BDE8F08F0BF1600066
:102BD00007F006FBBBF80C3010E70798089927AA06
:102BE000FFF70EF8002840F0BF8444465CE74846F3
:102BF000FDF77CFB0F4B9B457FF4E9AE104B1B6848
:102C0000D3F804B0EEE6BBF90E20002AFFF614AFAD
:102C100003F400731BB2002B00F0908720A92098CA
:102C200007F0C0FB4846594622462B4601F082F980
:102C30000990C7E7889A0108689A0108489A01082C
:102C4000A89A01080B9B0D955B420B93059D45F0DF
:102C50000405059513783DE78DF87710137839E76B
:102C6000059D45F020050595137833E70D9D0D98DA
:102C70002D680692119511990025BA46061D8DF80A
:102C80007750002901F01E80002F1198C1F20180B9
:102C900029463A46FEF706F8002801F0B18011995E
:102CA0000E95401AB8420C9040F3F78627EAE77574
:102CB0000A950E9D9DF877300D960C971595002B73
:102CC00000F084800A9D01350A957FE0059D0692FB
:102CD000AB06BA4640F1C0810D9DEB1D23F0070302
:102CE000D3E9006703F1080356EA07000D930CBF10
:102CF00000220122012300218DF87710BAF1000F84
:102D0000A2BF059D25F080050595BAF1000F18BFFB
:102D100042F00102002A00F04F83012B00F0B4843E
:102D2000022B00F095840DF1CF00A6460724F10890
:102D300006EA040241EA4771FD0830320E46D2B27B
:102D40002F4603460270013856EA0705EED1059D6D
:102D50001193E907744640F1BF84302A00F0E486FD
:102D6000302203F8012CC0EB080311900C9335E3DB
:102D7000A24D06921995059DAE06BA4640F1B58062
:102D80000D9DEB1D23F00703D3E9006703F1080550
:102D90000D95059DE80700F1DA8456EA07000CBF9F
:102DA000002201220223A6E70692B9F1000F00F0EB
:102DB0002D8701250A9500230C952AAD8DF8A89042
:102DC0008DF87730119500250E951595059B13F01C
:102DD0000203109302D00A9D02350A95059B13F059
:102DE0008403129340F0BC810B9D0A982F1A002F88
:102DF00040F3B681102F299E289DDFF810B22ADDFE
:102E00005B46CDF86890BB464FF0100ADDF8209085
:102E10001F4602E0BBF1100F18DD013584E8800485
:102E200010360834072DABF1100B29962895F1DDEB
:102E30000798494627AAFEF7E3FE002840F0E28201
:102E4000BBF1100F299E289D4446E6DC3B46DDF889
:102E500068905F469B460135C4F800B06760F6197C
:102E60000834072D2996289540F37B810798089907
:102E700027AAFEF7C5FE002840F07683299E444627
:102E80006FE19DF87730002B40F030858DF87700AA
:102E900013781FE6154615F8019BB9F12A0F01F0CA
:102EA0002580A9F130030027092B2A463FF614AEEE
:102EB000002715F8019B07EB870703EB4707A9F1EC
:102EC0003003092B2A46F4D947EAE77704E6059D43
:102ED00045F0010505951378FCE5494D06921995D5
:102EE000059DAE06BA463FF54BAF059DED0640F198
:102EF000AB850D9D2B6804351E4600270D9548E7D0
:102F000001250A950D9D0D9B069204351B680D95B4
:102F1000012500220C952AAD8DF877208DF8A83078
:102F2000119550E7059D0692AA06BA4640F1BE806B
:102F30000D9DE91D21F00701D1E9002308310D9114
:102F400016461F46002A73F10000C0F2C08456EAFC
:102F500007010CBF002201220123CFE6059D45F0A9
:102F6000400505951378B5E50D9D0D9B2D680B95D6
:102F70001D1D0B9B002BFFF665AE13780D95A9E583
:102F80000D9D0692E91D21F0070101F108050D953F
:102F90004E68BA460F6833463A463846314643ECE7
:102FA000102BCDE9160103F0F5FD012840F0A184B6
:102FB000384631460022002304F072FB002840F01E
:102FC000B8859DF8773003250A9500250E95059D57
:102FD0000C4A0D4925F0800505950325B9F1470FE9
:102FE000D8BF11460C9500251191159567E6059DF2
:102FF00045F00805059513786CE500BFFCB10108A4
:10300000E8B1010818B201081CB20108CC9A010805
:10301000059D069245F010050595059D15F02003C8
:10302000BA4674D00D9DEB1D23F00703D3E900676A
:1030300003F1080356EA07000D930CBF002201229A
:10304000002358E6059D069245F010050595059D5F
:10305000AB06BA463FF540AE059DEF0640F1CA8487
:103060000D9D2A6800271646D21B18BF0122043581
:103070000D9501233FE615460023A9F1300215F80E
:10308000019BA9F1300603EB8303092E02EB4303F6
:103090002A46F2D90B931FE5059D069245F01005CF
:1030A0000595059DAA06BA463FF542AF059DEB067C
:1030B00040F1B2840D9D2B681E46F7170435324649
:1030C0003B460D953EE7059D45F080050595137837
:1030D00000E513786C2B154600F0A485059D45F09E
:1030E00010050595F6E4059D0692A80640F19E841C
:1030F0000D9D099A2B68D11704351A6059600D95FA
:10310000B1E4059D069215F02003BA468AD1059DCB
:1031100015F0100100F0A4840D9D2A6800271646C2
:10312000D21B18BF012204350D95E4E50D9B0692D4
:103130001D1D0D95059D1A6845F00205BA460595B9
:103140000027AC4D782130231646D21B8DF87830FD
:1031500018BF01228DF87910199502238946CAE516
:10316000299E9DF877306BB1289D0DF17703236080
:1031700001350123636001360834072D299628950F
:1031800000F30582109B63B1289D1EAB23600135BF
:103190000223636002360834072D2996289500F330
:1031A0000082129D802D00F047810E9D0C9BC3EB89
:1031B000050ABAF1000F3CDDBAF1100F289D8E4FC1
:1031C00024DDCDF838904FF0100BDDF8209002E0B0
:1031D000BAF1100F18DD013584E880081036083484
:1031E000072DAAF1100A29962895F1DD079849467E
:1031F00027AAFEF705FD002840F00481BAF1100F60
:10320000299E289D4446E6DCDDF83890013584E8A7
:10321000800456440834072D2996289509DD07981F
:10322000089927AAFEF7ECFC002840F09D81299E12
:103230004446059DEB0564D4289D0C9B1198636062
:103240002060F61801350834072D2996289500F3DB
:103250007A81059D6B073CD50B9D0A982F1A002F8C
:1032600037DD102F289DDFF898B1C4BFDDF81CA012
:103270004FF0100902DC1AE0102F18DD0135C4F8F8
:1032800000B0C4F804901036103F0834072D29967A
:103290002895F1DD5046089927AAFEF7B1FC0028D1
:1032A00040F06281102F299E289D4446E6DC0135BE
:1032B000BE19072DC4F800B067602996289508DD6F
:1032C0000798089927AAFEF79BFC002840F04C813C
:1032D000299E099C0A980B9DA842ACBF241864192A
:1032E0000994002E40F038810023069D28932B7806
:1032F000252B18BF002B44467FF4BCAB069FFFF77D
:10330000D6BBB9F1650F40F3DC80DDE91601002280
:10331000002304F0BBF9002800F04D81289D374BB5
:10332000013523600123636001360834072D299697
:10333000289500F309841F9B0F9DAB4202DB059D7E
:10334000ED0786D5289D149913986160013520609A
:1033500076180834072D2996289500F36B840F9D65
:1033600005F1FF39B9F1000F7FF773AFB9F1100F15
:10337000289D214FC4BFDDF81CB04FF0100A04DCBB
:10338000F8E1B9F1100F40F3F581013584E88004CC
:1033900010360834072DA9F1100929962895F0DD7B
:1033A0005846089927AAFEF72BFC002840F0DC803D
:1033B000299E289D4446E4E7002B40F0E480059DCB
:1033C000EA075CBF0C93CDF8448007D51B9D3023E2
:1033D0000C950DF1CF058DF8CF3011950C9D9DF812
:1033E0007730CDF838A05545B8BF55460A95002529
:1033F000159564E4FCB10108DC9A010838A40108C1
:10340000CC9A0108CB46BBF80C3003F400731BB216
:10341000002B00F0B380209820A906F0C3FFBBF872
:103420000C30099C03F040031BB2002B18BF4FF077
:10343000FF340994FFF7C6BB0B9D0A98C0EB050A41
:10344000BAF1000F7FF7B1AEBAF1100F289DB04F5F
:1034500023DDCDF840904FF0100BDDF8209002E016
:10346000BAF1100F17DD013584E8800810360834F2
:10347000072DAAF1100A29962895F1DD07984946EB
:1034800027AAFEF7BDFB0028BCD1BAF1100F299E78
:10349000289D4446E7DCDDF84090013584E880044F
:1034A00056440834072D299628957FF77EAE079855
:1034B000089927AAFEF7A4FB002855D1299E444667
:1034C00073E60F9D012D40F3C881289D11980135A9
:1034D00001232060636001360834072D2996289562
:1034E00000F3D8811499139A61600135226076182F
:1034F0000834072D2996289500F3D881DDE91601B7
:103500000022002304F0C2F8002840F0EF80119B55
:103510000F985A1C431E84E80C00013E36180135F2
:103520000834072D2996289500F3A881189B189830
:10353000F618013523AB236060600834072D299607
:1035400028957FF786AE0798089927AAFEF758FBBB
:1035500050B94446299E7CE60798089927AAFEF7A9
:103560004FFB00283FF4C0AEDDF820B0BBF80C30B4
:1035700003F400731BB2002B7FF44DAF0BF160001E
:1035800006F068FE47E70C92CDF8448026E70798DE
:10359000089927AAFEF734FB0028E5D1299E444666
:1035A000F0E50798089927AAFEF72AFB0028DBD147
:1035B000299E4446F5E51F9A002A40F3D182159DC5
:1035C0000F9F0F98AF42A8BF2F46119D002F05EB0C
:1035D000000B0BDD289D1199676001352160F619FC
:1035E0000834072D2996289500F36183159D27EA55
:1035F000E777C7EB0509B9F1000F40F3D680B9F1C1
:10360000100F289D424F40F3BD80CDF830B04FF0F1
:10361000100ACB46DDF8209003E0BBF1100F40F319
:10362000AE80013584E8800410360834072DABF1F4
:10363000100B29962895F0DD0798494627AAFEF732
:10364000DFFA00287FF4DEAE299E289D4446E4E799
:10365000DDF864E00DF1CF01A4460F2406EA040270
:103660007244330943EA07733D0912781E462F4618
:1036700008460A70013956EA0705EED1C0EB080387
:10368000119064460C93A9E6002F08BF0A2E08D2B9
:103690001B9D30360C950DF1CF058DF8CF6011953F
:1036A0009CE60DF1CF05304639460A22002304F08E
:1036B00047F830322A70304639460A22002304F097
:1036C0003FF806460F4656EA0700AB4605F1FF35C0
:1036D000E9D1CDF844B05B46C3EB08030C937DE61B
:1036E0000C4B1B68D3F808B0FFF77CB90F9901F1B8
:1036F000FF39B9F1000F7FF719AFB9F1100F044F7F
:10370000C4BFDDF81CB04FF0100A09DCDAE000BFDE
:10371000DC9A0108A89A0108B9F1100F40F3D28091
:10372000013584E8800410360834072DA9F110090A
:1037300029962895F0DD5846089927AAFEF760FAE1
:1037400000287FF411AF299E289D4446E4E700221B
:10375000022356EA07013FF4CEAA059D8DF8799021
:10376000302345F002058DF87830059501220223BB
:10377000FFF7C1BA4E44013584E8800263E5D946BB
:10378000DDF830B0013584E880024E440834072D5E
:103790002996289509DD0798089927AAFEF730FA97
:1037A00000287FF4E1AE299E4446119D15981F9B89
:1037B00005EB000A0F9DAB4280F26A81289D1499A7
:1037C000139861600135206076180834072D29961A
:1037D000289500F39D810F9DCAEB0B07EB1ABB42A6
:1037E000B8BF1F46002F0BDD289DC4F800A001358F
:1037F0006760F6190834072D2996289500F37A8119
:1038000027EAE777C7EB0309B9F1000F7FF721AD8E
:10381000B9F1100F289DB44FC4BFDDF81CB04FF0B4
:10382000100A03DCA6E7B9F1100FA3DD013584E827
:10383000800410360834072DA9F11009299628951F
:10384000F1DD5846089927AAFEF7DAF900287FF437
:103850008BAE299E289D4446E5E7059DEA073FF586
:1038600034AE289D119A0135012322606360013630
:103870000834072D299628957FF758AE07980899A0
:1038800027AAFEF7BDF900287FF46EAE4446299EB4
:10389000289D4BE60798089927AAFEF7B1F900285A
:1038A0007FF462AE299E289D44461BE6079808993E
:1038B00027AAFEF7A5F900287FF456AE299E289D79
:1038C00044461BE64E44013584E8800228E67642F1
:1038D00067EB470756EA07024FF02D038DF8773064
:1038E0000CBF002201220123FFF708BA1378FFF76B
:1038F000F1B83A46334643EC102B03F04BF900285D
:1039000000F0DD80BAF1FF3F29F0200B08BF4FF037
:10391000060A07D0BBF1470F04D1BAF1000F08BF68
:103920004FF0010A059D002E45F480751095C0F2F8
:10393000888200250E95BBF1460EDEF1000C5CEB93
:103940000E0CBCF1000F40F0CA81BBF1450F40F0F6
:10395000768221A93A460AF101053346009122A94F
:1039600043EC102B01912A46079802211FAB00F06F
:103970007FFC11904519384631460022002303F0A0
:1039800085FE50B9229B9D4298BF1D4605D9302225
:1039900003F8012BAB422293FAD11199BBF1470FE7
:1039A000C1EB05050F9500F0CA81B9F1650F40F331
:1039B000BE82B9F1660F1F9A00F057820F9DAA428E
:1039C000C0F24482059DED0700F1648222EAE275AF
:1039D0000A950C924FF0670915920E9D002D00F08C
:1039E000A5812D23109D8DF87730002305950E932A
:1039F000FFF768B9059D15F0400F0D9D3FF431AB01
:103A00002E88002756EA07000CBF00220122043549
:103A10000D950123FFF76FB9059D15F0400F0D9D22
:103A20003FF449ABB5F90060FFF747BB059DE906D8
:103A30003DD4059D6A063AD50D9D2B6804350D953C
:103A4000099D1D80FFF70FB8059D15F0400F0D9DD6
:103A50003FF450AA2E8804350D950027FFF799B939
:103A6000059D15F040030D9D3FF457AB2E880027B0
:103A700056EA07000CBF0022012204350D950B46C3
:103A8000FFF739B90BF1600006F0E4FBFFF793B8DC
:103A9000059DE9077FF59FAE90E60C9B0D9623EA06
:103AA000E3730A9315959DF87730FFF708B90D9DDC
:103AB0002B6804350D95099D1D60FEF7D4BF0325C5
:103AC0000A95059D094A0A499DF877300E9025F020
:103AD0008005B9F1470FD8BF11460595032511910F
:103AE0000C951590FFF7EBB8DC9A010820B201089D
:103AF00024B201080798089927AAFEF781F8002840
:103B00007FF432AD0F9C1F9B299EE31A444677E653
:103B10000798089927AAFEF773F800287FF424ADC8
:103B20001F9B299E444656E6119DC5EB08050C9542
:103B300054E42D238DF87730FFF745BA0BF1600080
:103B400006F088FBFFF76AB80798089927AAFEF7DE
:103B500057F800287FF408AD299E4446FFF7EBBBD9
:103B6000289DAD4B01352360012363600136083485
:103B7000072D299628953DDC2AB90F9D1DB9059D75
:103B8000E8077FF566AB289D1499139861600135AD
:103B90007618072D206004F108032996289500F374
:103BA0004181C2F10009B9F1000F63DDB9F1100FD5
:103BB0009A4F4BDD1024DDF81CA0DDF820B002E0A8
:103BC000B9F1100F42DD01351F605C60103608331B
:103BD000072DA9F1100929962895F1DD504659467F
:103BE00027AAFEF70DF800287FF40DAC299E289D2A
:103BF0004346E5E70798089927AAFEF701F8002849
:103C00007FF4B2AC1F9A299E4446B5E7299BDDF8A4
:103C10001C90DDF820B0002B40F0E88000232893B2
:103C2000FFF7F1BB059B43F02003059301326B784E
:103C3000FEF750BF0798089927AAFDF7E1FF002873
:103C40007FF492AC299E4446FFF789BB013583E897
:103C500080024E440833072D299628950ADD0798DF
:103C6000089927AAFDF7CCFF00287FF47DAC299E98
:103C7000289D43460F9C3619119C01351C600F9CF2
:103C8000072D5C6003F10804299628957FF7E1AAC7
:103C900059E4FDF74FFF0E9520EAE0750A950E9D59
:103CA0000C909DF877300D961595FFF708B807989A
:103CB000089927AAFDF7A4FF00287FF455AC299E98
:103CC000444693E4062F34BF3B46062323EAE375BC
:103CD0000A95534D0C930D961195FFF774B8032177
:103CE00021A83A463346009022A843EC102B0190BD
:103CF00052460798CDF80CC01FAB00F0B9FABBF1E3
:103D0000470F1190DDF80CC002D1059DED0713D5CA
:103D1000119800EB0A05BCF1000F3FF42CAE0378BC
:103D2000302B00F0BF801F9BED1824E6109D9DF8FE
:103D300077300595FEF7C3BF229B1B1A0F931F9B7D
:103D4000D91C1A4602DB9A45BFF638AEA9F1020922
:103D5000013B002B1F938DF88C90C0F2B8802B2272
:103D60008DF88D20092B40F38D8046F267650DF1AB
:103D70009A01C6F2666585FB0320DA17C2EBA00044
:103D800000EB80060A46A3EB460303F130011170F5
:103D9000511E09280346EEDC30330DF19B05D8B2E5
:103DA0008D4202F8010C40F2BF800DF18D011346E7
:103DB00001E013F8010BAB4201F8010FF9D144AD5A
:103DC000C2EB4503F63B23AA9A1A0F9D0F9B18924C
:103DD0009B18012D0C9340F395800C9B013323EA33
:103DE000E3750A9500250C931595F6E54846594666
:103DF00027AAFDF705FF00283FF410AFFFF703BB2C
:103E000027EAE7750E900A959DF877300D960C9786
:103E10001590FEF754BF00BF38A40108DC9A0108D2
:103E200010B201080798089927AAFDF7E9FE0028B3
:103E30007FF49AAB1F9A299E289D4346B1E6022142
:103E40004EE72D2506F100460E9574E5002A0F9BDE
:103E5000D4BFC2F102094FF001094B4423EAE375D4
:103E60000C930A954FF06709B6E5002A34DDBAF1E4
:103E7000000F24D1059DEB0721D422EAE2750A95B3
:103E80000C92A9E5303330228DF88F308DF88E20DA
:103E900024AB98E7531C23EAE3750C930A954FF083
:103EA000670999E5384631460022002303F0EEFB0E
:103EB00000287FF438AFCAF101031F9334E70AF1F9
:103EC0000103D31823EAE3750C930A9584E52D22A8
:103ED0005B428DF88D2045E7BAF1000F1DD1059D9D
:103EE000EE071AD401250A950C9575E50D9B1F6800
:103EF0001E1D002F53780D962A46B8BF4FF0FF378E
:103F0000FEF7E8BD059D15F001037FF466AF0C9D3B
:103F1000159325EAE5750A955FE50AF1020323EAA0
:103F2000E3750C930A9557E50DF18E034BE71F9B44
:103F30000EE700BF2DE9F0470C46E0B0256AB1F866
:103F40000CA00895896FA56AB4F80E901E91002602
:103F50004FF480770A952AF0020A20AD6946009551
:103F600004958046ADF80CA0ADF80E900297059729
:103F70000696189619961A961B96FEF709FD051EC9
:103F800007DB4046694601F025FAB04218BF4FF002
:103F9000FF35BDF80C3003F040031BB21BB1A38901
:103FA00043F04003A38118A806F014F9284660B036
:103FB000BDE8F08770B50D461446064607F036FF9B
:103FC00031462A462346BDE87040FEF7E1BC00BFFB
:103FD00070B504460D4607F029FF18B107F026FF1B
:103FE000836953B107F022FF064B22461C68A16883
:103FF0002B46BDE87040FDF741BE07F017FFFCF708
:1040000075F9EFE7A89A010870B50E461546044603
:1040100018B183690BB9FCF769F9054B20461C6898
:10402000A16832462B46BDE87040FDF727BE00BFB1
:10403000A89A010838B505460C4607F0F7FE20B1EE
:1040400007F0F4FE8369002B4ED03D4B9C4252D0CA
:104050003C4B9C4268D03C4B9C4202BF3B4B1B6894
:10406000DC68A38903F0080212B219466AB122691A
:10407000DAB113F0010124D103F002031BB203B93A
:104080006169A16022B3002038BD03F0100212B2B2
:10409000002A4DD001F0040109B200292FD1226974
:1040A00043F00803A381002AE3D103F42071B1F5A2
:1040B000007FDED02846214601F0A8FDA3892269B1
:1040C000D7E7636900215B42A160A361002ADAD1CE
:1040D000A38903F0800109B20029D4D043F0400342
:1040E000A3814FF0FF3038BD07F0A0FEFCF7FEF8CB
:1040F000134B9C42ACD1154B1B685C68B1E7616BFC
:1041000049B104F14402914203D0284601F0D6FAA5
:10411000A3890022626323F0240322691B04002187
:104120001B0C61602260BBE7084B1B689C6898E72A
:1041300041F0400109232B604FF0FF30A18138BDD1
:10414000889A0108689A0108489A0108A89A010803
:104150002DE9F84F03690F699F42824600F385807D
:10416000FB1C9B0001EB030BC318DBF804205B680E
:104170000132B3FBF2F801F11404013F0BF1040B1F
:1041800000F11409B8F1000F3AD000254A46234641
:104190002E4653F804CB10681FFA8CFE4FEA1C4CD5
:1041A00008FB0E5E08FB0CF505EB1E4516FA80F6C3
:1041B0001FFA85FC1FFA8EFECEEB0606CCEB1040F4
:1041C00000EB2640B6B246EA004642F8046B2D0CDE
:1041D00006149B45DDD23B1D0AEB83035A687AB96E
:1041E0001A1D99450AD252F8042C3AB9043B02E050
:1041F0001A68043B12B9013F9945F9D3CAF8107007
:10420000504602F003F800282CDB08F101084B4669
:10421000002254F8046B1D68B1B2A8B2360C411AE2
:104220008918C6EB154202EB214289B241EA0241EC
:104230001214A34543F8041BEBD23B1D0AEB830386
:104240005A687AB91A1D99450AD252F8042C3AB91B
:10425000043B02E01A68043B12B9013F9945F9D3C7
:10426000CAF810704046BDE8F88F0020BDE8F88F0E
:104270002DE9F04FC5699DB006460291269C069235
:1042800007935BEC10AB002D00F08F82296851B1D1
:104290006B68012202FA03F24B608A6001F062FD52
:1042A000F36900221A60BBF1000937DB00232360A9
:1042B00000231A46C7F6F073C7F6F07209EA030343
:1042C000934216D0002200235046594654465D467C
:1042D00003F0DCF9002827D0079A01231360279BFD
:1042E000002B00F0CC809E48186001381DB0BDE85E
:1042F000F08F079942F20F730B60BAF1000F00F0D4
:10430000A5809848279A002AF0D0C378002B00F0A7
:10431000478200F1080327990B60E7E729F000497D
:1043200001232360CB46C3E7304645EC104B1BA965
:104330001AAA02F083F8C9F30A570E90002F40F032
:104340008E80DDF868801B9F6FF4826347449F4234
:10435000C0F252824FF60E43CFF6FF73DB1B07F21B
:10436000124209FA03F32AFA02F243EA020002F0C7
:10437000AFFE0123013FA1F1F87118930023002241
:10438000C3F6F87302F066FD6FA3D3E9002302F0D1
:1043900015FF6FA3D3E9002302F05EFD0446384603
:1043A0000D4602F0A5FE6CA3D3E9002302F006FF40
:1043B00002460B462046294602F04EFD04460D46B5
:1043C00003F096F92946059000222046002303F0C9
:1043D00067F9002840F00082059A162A00F2E2816F
:1043E000614B03EBC203D3E9000152465B4603F085
:1043F00075F9002800F0FE81059B0021013B059323
:104400001291C7EB0807013F00F1E18100210897F5
:104410000C91059A002AC0F2D181089B11929B1839
:10442000002108930F91029B092B2AD80125052B07
:1044300002DD043B0293002502998B1E032B22D838
:10444000DFE813F05803550346032302454B474A60
:10445000C9F3130000280CBF1046184652E72BF092
:104460007F4323F4700343F07F530022504643F40C
:104470004011A7F2FF37DDF8688018927EE73C48CC
:1044800034E700230293F569002421466C6030462E
:1044900001F034FCF36928601B6806944FF0FF318B
:1044A000012209910D93109213911B9B002BC0F2D6
:1044B000BB8005990E2900F3B780069AD30F2A4ACC
:1044C00002EBC10292ED007B09990029CCBF0023C9
:1044D00003F001038DED027B002B40F0508453EC80
:1044E000172B5046594602F093FF03F001F980461E
:1044F00002F0FEFDDDE9022302F060FE02460B46FB
:104500005046594602F0A6FC099A0D9F08F1300367
:10451000012A04460D4607F8013B5AD00023002229
:10452000C4F2240302F04AFE0022002304460D4692
:1045300003F0ACF8002840F022810D9A099B02F1AB
:10454000020A02EB030920E061436F63A787D23FB1
:10455000B3C8608B288AC63FFB799F501344D33F72
:1045600039A4010834B20108009B010828B20108EF
:1045700038A4010802F022FE0022002304460D4662
:1045800003F084F8002840F0FA80DDE90223204699
:10459000294602F03DFF03F0ABF8804602F0A8FD8B
:1045A000DDE9022302F00AFE02460B4620462946B8
:1045B00002F050FC08F1300700230022CA450AF837
:1045C000017C044657460D46C4F224030AF1010A51
:1045D000D0D122462B462046294602F03DFC044617
:1045E0000D462246DDE902012B4603F059F800286A
:1045F00000F04285059917F801AC19910D9A02E077
:1046000013F801AC1F467B1EBAF1390F40F002854A
:104610009342F5D119990D92013105910D993022EE
:104620000A7031221A70AAE01099002940F0EC803B
:10463000109B0F9D0C9C0A9308990029C8BF002C61
:1046400009DD0B460C9AA342A8BF2346D21AC91A09
:104650000C92E41A08910F9B002B1ADD1099002987
:1046600000F04F84002D10DD0A992A46304601F0F3
:1046700021FD0A900A990E9A304601F079FC0E99B4
:104680000746304601F06EFB0E970F9B5A1B40F019
:1046900070840121304601F061FC119900298046A7
:1046A00005DD41463046119A01F004FD8046029A2C
:1046B000012A40F3D0800025119A0120002A40F001
:1046C00037830899431813F01F0300F09182C3F158
:1046D0002002042A40F32F850C9AC3F11C03D21840
:1046E000C9180C92E41808910C9B002B05DD30468C
:1046F0000E991A4601F030FD0E900899002905DD4B
:1047000041463046089A01F027FD8046129A002A59
:1047100040F018830299099A0229D4BF002301238B
:10472000002AC8BF0023002B00F01A820999002933
:1047300040F0108241460522099B304601F02EFBD5
:10474000804641460E9801F061FD002840F3028248
:104750000D9F312307F8013B059B0133059300258D
:104760003046414601F0FEFA0A9A42B1954218BF1E
:10477000002D40F04B8230460A9901F0F3FA0E9971
:10478000304601F0EFFA059A0799531C00223A705F
:10479000279A0B60002A00F03E8217600D98A5E56D
:1047A000C31CB8E5012212922BE61020FBF7C0FFD4
:1047B000F061456085600560C56074E50C9A059BF5
:1047C000D21A0C92594200220F9111922BE67F428D
:1047D00000230C9708931CE6059802F089FC2246FA
:1047E0002B4602F053FF00287FF4F6AD05990139FE
:1047F0000591F1E5129004E64FF6EE30CFF6FF702A
:10480000C01B0AFA00F0B2E5029A012A40F3D283F3
:10481000099A0F9B551EAB42BFBF0F99119A0F9576
:10482000C1EB0503B4BFD218C5EB0305099BBCBFA0
:1048300011920025002BC0F2C5830C9C099B0C9A99
:10484000D2180C92089A3046D2180121089201F031
:1048500085FB0A90F0E6BAF1000F7FF42CAFCBF3A2
:1048600013025546002A7FF427AF0025C7F6F075DE
:104870000BEA0505002D3FF41FAF0C9B089901338F
:1048800001310C930891012516E701211091069A38
:10489000059BD21802F10109B9F1000F139240F300
:1048A0002883B9F10E0F8CBF002505F00105CDF866
:1048B0002490F4690023B9F1170F636009D901222C
:1048C00004235B0003F11401104601324945F8D975
:1048D00060603046616801F011FAF36920601B687E
:1048E0000D93002D3FF4E1AD05990029CDE90AAB08
:1048F00040F398819F4B01F00F020F1103EBC203AD
:10490000F906D3E9004540F17C819B4B504659465E
:10491000D3E9082302F07CFD07F00F0782468B469F
:104920004FF003088FB1DFF8509220462946FA076E
:1049300005D5D9E9002302F041FC08F101087F10F8
:1049400009F10809F3D104460D465046594622465E
:104950002B4602F05DFD82468B46129B53B100232D
:10496000504659460022C3F6F07302F099FE002823
:1049700040F0CF82404602F0BBFB52465B4602F05D
:104980001DFC00230022C4F21C0302F065FAA1F111
:10499000507509990446002900F0BF80059ADDF89A
:1049A00024901992109B002B00F06781714B00211D
:1049B00003EBC90353E902230020C3F6E07102F0C0
:1049C00027FD22462B4602F045FACDE91401504658
:1049D000594602F08DFE074602F08AFB02460B465E
:1049E0005046594602F036FA07F1300A0D9F044648
:1049F0000D465FFA8AFA07F801ABDDE91401224699
:104A00002B4602F06BFE002840F0D08200212246A7
:104A10002B460020C3F6F07102F01CFA02460B464A
:104A2000DDE9140102F05AFE002840F07D83B9F15F
:104A3000010F40F3F4800D9916968944B846CB4691
:104A4000DDE914670FE000210020C3F6F07102F0E9
:104A500001FA32463B4602F023FE002840F0D582A0
:104A6000D84500F0DB8000230022C4F22403304646
:104A7000394602F0A3FB00230022C4F224030646B9
:104A80000F462046294602F099FB0D46044602F0E7
:104A90002FFE814602F02CFB02460B46204629469B
:104AA00002F0D8F909F130095FFA89FA08F801AB88
:104AB00032463B4604460D4602F0F2FDC146224610
:104AC0002B460028BFD01999169E0591474656E6F9
:104AD00001231093069B002B40F3028299460E2B74
:104AE0008CBF002505F0010513930993E1E6002131
:104AF0001091CCE600221092ECE7404602F0F8FA62
:104B000052465B4602F05AFB00230022C4F21C030B
:104B100002F0A2F90446A1F1507500230022C4F26C
:104B200014035046594602F095F922462B4680461A
:104B3000894602F0D3FD0746002840F099802246BE
:104B400005F100434046494602F0AAFD002866D020
:104B5000B8460A97069A0D9FD24305920025FFE5B5
:104B60001099002940F0378100240E9D099FDDF83F
:104B700034900AE0009B0108F09B0108294630466A
:104B80000A22002301F00AF9054641462846FFF7AC
:104B9000DFFA303009F804000134BC42EEDB0D9F2F
:104BA00009990E9583460129ACBF7F18013700256E
:104BB00001220E99304601F0CFFA41460E9001F0E5
:104BC00025FB002840F32F8217F8012C0D9902E0F5
:104BD00013F8012C1F467B1E392A40F061828B425C
:104BE000F6D1059A0D990132312305920B70B7E584
:104BF0001C230C99089AC918D2180C91E418089231
:104C000072E5DDE90AAB4FF002088BE63046294633
:104C100001F0A8F8AFE50D98FFF768BB169EDDE937
:104C20000AAB42E4059A5442002C00F09D81AA4B45
:104C300004F00F0203EBC203DDE90A01D3E900230C
:104C400002F0BCFA241182468B4600F06382A34D29
:104C50004FF00208E30705D5D5E9002302F0AEFACC
:104C600008F1010808356410F4D182468B4674E6D9
:104C70004FF00008CDF828806AE5974909F1FF3226
:104C800001EBC2012B461492D1E90001224602F049
:104C900095FACDE916015946504602F029FD8046A5
:104CA00002F026FA02460B465046594602F0D2F868
:104CB0000D9F08F13008B9F1010F04460D4607F8C1
:104CC000018B22D00D994B1E8846994420462946D7
:104CD00000230022C4F2240302F070FA0D460446B9
:104CE00002F006FD824602F003FA0AF1300A02469B
:104CF0000B462046294602F0ADF808F801AFC8453A
:104D0000E6D1149A04460D46BF1800230022C3F6CC
:104D1000E073DDE9160102F09FF822462B4602F00F
:104D2000BFFC002800F02C8117F801AC0D9A6AE452
:104D3000D8F8103008EB8303186901F0C3F8C0F10C
:104D40002000BEE40E98414601F060FA0028BFF64C
:104D5000E1AC0E99002330460A2201F01FF8059BB2
:104D600010990E90013B059309BB139B002B03DCAC
:104D70000299022900F3E481139A0992F4E6099B4F
:104D8000002B40F05E8100230022C4F21403DDE911
:104D9000020102F013FA52465B4602F095FCDDF880
:104DA0002480CDF8288000287FF4D4AED0E40023FE
:104DB0000A220A99304600F0F1FF139A02990A90EC
:104DC000002ACCBF002301230229D8BF0023002BD7
:104DD00040F0AD810992002C05DD30460A9922464B
:104DE00001F0BAF90A90DDF82890002D40F02E81EC
:104DF0000D9A099B0A9DD3180AF00101C346DDF8FC
:104E000038800C93541C089159464046FFF7A0F98E
:104E100029460746404601F0F9F959464A46824676
:104E2000304601F011FA621E0992C26807F13001A2
:104E300003460691002A3DD00122194630460192D0
:104E400000F090FF019A029B134303D108990029B7
:104E500000F05281BAF1000FC0F2B880029B5AEA0A
:104E6000030303D10899002900F0B080002A00F361
:104E700022810C9B069A9C4204F8012C274600F0E4
:104E80002B8141460A220023304600F087FF4D4522
:104E9000804617D029460A220023304600F07EFFC4
:104EA000494605460A223046002300F077FF0134C8
:104EB0008146A9E719464046019301F0A7F9019BF5
:104EC0000246BAE7294630460A22002300F066FF70
:104ED00001340546814697E7009B0108F09B0108D5
:104EE0000123139309930693F469002262601D4025
:104EF000EFE4B9F10E0F8CBF00230123CDF824900D
:104F0000F2E730460E990F9A01F0D4F80E90FFF7B1
:104F1000C0BB099900293FF4F0AD139A002A7FF72E
:104F20007EAE00230022C4F224035046594602F00C
:104F300045F9824608F101008B4602F0D9F8024695
:104F40000B465046594602F039F90023C4F21C03BF
:104F5000002201F081FF059BDDF84C90013B0446E7
:104F60001993A1F150751DE5DDE90AAB4FF0020878
:104F7000F3E430460E9901F09DF80E90FFF789BBDF
:104F80000021DDE916230020C3F6E07101F062FF85
:104F900022462B4602F0A2FB00283FF440AE3B46DF
:104FA0001F46013B17F8012C302AF9D0199B0593B5
:104FB000FFF7E5BB1899002976D003F233430F9D24
:104FC0000C9C3CE40C99CC1A002338E4CDF83880D2
:104FD000D846DDF818B0002A5C460FDD01220E9994
:104FE000304601F0B9F841460E9001F00FF9002863
:104FF00040F39380392C07F1310B75D0099FCDF820
:10500000289007F801BBFFF7ABBB4F460D9A169EE1
:10501000FFF7F9BA0D9219990AF10102D2B205917E
:105020001A70FFF7ACBB03D11BF0010F7FF4CCADBE
:105030003B461F46013B17F8012C302AF9D0FFF7F9
:105040008FBB4FF00008CDF8288083E50A9A3046E0
:10505000516800F053FE0A990B699A1C04469200AD
:105060000C3100F10C00FBF799FE3046214601227D
:1050700001F072F88146BBE6DDE9020122462B46CB
:1050800002F004FB00283FF47AAB18F0010F3FF464
:1050900076AB059A17F801AC19920D9AFFF7B3BADF
:1050A00001321A70FFF75CBB1A9B0F9D0C9CC3F179
:1050B0003603FFF7C4BBCDF83880D846DDF818B00A
:1050C000BBF1390F10D0099FCDF828900BF10103E7
:1050D00007F8013BFFF744BBCDF83880CDF82890A6
:1050E000D846DDF818B063E5099FCDF8289039223D
:1050F00007F8012B0D996EE5CDF83880D846DDF81C
:1051000018B0BBF1390FEFD0BAF1000FC8BF07F1EB
:10511000310B73E74FF002081FE47FF46FAF1BF011
:10512000010F3FF46BAF65E70D9AFFF76CBA139A66
:105130000992FFF7FBBA3FF4D7AAC3F13C0358E545
:10514000139B0993FFF7F2BA08B506F06FFE08BD8E
:10515000F0B50C4683B00546002976D010B18369BE
:10516000002B60D03A4B9C4262D03A4B9C4268D0B4
:10517000394B9C4202BF394B1B68DC68012001A9F6
:1051800005F010F9A38903F400731BB204F1600762
:10519000002B39D02846214600F01CF9236B064627
:1051A0003BB12846216A984736EA200628BF4FF0CF
:1051B000FF36A38903F080031BB2002B3CD1616B47
:1051C00041B104F14403994202D0284600F076FA36
:1051D00000236363A16C21B1284600F06FFA00231D
:1051E000A364FBF76BF80023A381384605F032F87F
:1051F000384604F0EFFFFBF767F8019801A905F0C6
:10520000D1F8304603B0F0BD384604F0E9FFB4F9F8
:105210000C60002EBED1384605F01CF8019801A99B
:1052200005F0C0F8EDE7FBF761F8094B9C429CD113
:105230000A4B1B685C68A1E72846216900F03EFA2A
:10524000BDE7064B1B689C6898E70E46D9E700BF90
:10525000889A0108689A0108489A0108A89A0108E2
:1052600010B5044606F0E2FD2146BDE81040FFF708
:105270006FBF00BF8B8903F0080212B22DE9F04125
:105280000D468046002A3FD14A6843F40061002A57
:10529000A9815DDDEC6A002C4FD003F480531EB26F
:1052A0000023D8F80070C8F80030002E54D0AA6D42
:1052B00001F0040109B229B169686B6B521A0BB194
:1052C0002B6CD21A00234046296AA047421C4ED0BC
:1052D000AB892A6903F4805123F40063AB8109B2DE
:1052E000002385E80C00002950D1696BC8F80070D4
:1052F00019B305F14403994202D0404600F0DEF9AB
:1053000000206863BDE8F0810E69B6B19B070C68A8
:1053100008BF4B690E6018BF0023A41B8B600AE016
:1053200032462346AF6A296A4046B8470028C0EB98
:105330000404064404DD002CF2DC0020BDE8F0810A
:10534000AB8943F04003AB814FF0FF30BDE8F08103
:105350002A6C002A9EDCF0E7296A32460123404687
:10536000A047411C024622D0A989EC6AA0E7D8F8E0
:1053700000307BB9AA8929696B6002F480531BB2A3
:1053800022F40062AA812960002BAED0C317A86561
:10539000EB65AAE71D2B01D0162B15D1AA892B6925
:1053A00022F40062AA8100226A602B609DE7D8F88F
:1053B0000030002BD8D01D2B18BF162BC0D1C8F839
:1053C00000703046BDE8F081AB8943F04003AB810B
:1053D000BDE8F08130B50B6983B00C46054693B14A
:1053E00010B18369002B2AD0204B9C422CD0204B3B
:1053F0009C422DD01F4B9C4202BF1F4B1B68DC6898
:10540000B4F90C301BB90025284603B030BD01208B
:1054100001A904F0C7FFA38903F400731BB203B30F
:1054200028462146FFF726FFA38903F400731BB229
:1054300005468BB1019801A904F0B4FFE4E7FAF73F
:1054400055FF0A4B9C42D2D10B4B1B685C68D7E7D7
:10545000094B1B689C68D3E704F1600004F0FAFE76
:10546000E8E704F1600004F0BBFED9E7889A010880
:10547000689A0108489A0108A89A010810B50446DC
:1054800030B106F0D3FC2146BDE81040FFF7A2BFC3
:10549000034B04491868BDE81040FBF723B800BF70
:1054A000A89A0108D55300082DE9F043144683B0AB
:1054B00007460E46012001A904F074FFA38903F4F6
:1054C000007212B2002A6FD003F4005212B232B945
:1054D000A26F43F4005342F40052A381A26700F08C
:1054E00071FB012857D038466946324604F17003F3
:1054F00001F0FCFBB0F1FF3FE846814626D00028D2
:105500003AD0002509E0236818F805201A702368AE
:105510000133236001354D452ED2A368013B002B9A
:10552000A360F0DAA269934228DB236818F805200B
:105530001A70236819780A293CD0013300202360AF
:105540000028E7D0A3894FF0FF3605E0A38943F098
:1055500040039BB2A381064603F400731BB21BB940
:1055600004F1600004F076FE019801A904F01AFF2E
:10557000304603B0BDE8F083A389EDE718F80510C5
:105580003846224601F030FBB0F1FF335842584113
:105590000028BFD0D6E7731EFE2BA4D80DF1080853
:1055A000814608F8086DACE704F1600004F018FECD
:1055B000A38989E73846E4E738B505460C4606F086
:1055C00035FC18B106F032FC83699BB1114B9C424B
:1055D00017D0114B9C4218D0104B9C4202BF104B6D
:1055E0001B68DC6806F022FC29462246BDE83840EC
:1055F000FFF75ABF06F01AFCFAF778FE054B9C42FB
:10560000E7D1074B1B685C68ECE7054B1B689C689F
:10561000E8E700BF889A0108689A0108489A0108DB
:10562000A89A0108F8B5224D0F46044606F0FAFB89
:10563000AB685E6826F0030606F2EF33DF1BBF0A95
:10564000013FBF02B7F5806F07DB0021204606F05F
:10565000CFFBAB689B19984204D0204606F0E4FBD0
:105660000020F8BD7942204606F0C2FB01300DD083
:10567000104BA9681A68F61B46F00106D71B204696
:105680004E601F6006F0D0FB0120F8BD00212046CF
:1056900006F0AEFBAB68C21A0F2ADEDD06490968C8
:1056A000401A044942F0010208605A60D5E700BF81
:1056B00078020010B8080010800600102DE9F041B3
:1056C0000D460646002955D006F0ACFB55F8041CE3
:1056D000DFF868C1A5F1080421F00103E218DCF845
:1056E00008005768904227F0030765D011F00101C8
:1056F000576032D00021D0194068C00706D4DB19AA
:10570000906800294AD0D268C260906043F00102DC
:105710006260E350E1B9B3F5007F2DD35A0A042A41
:1057200066D89809383041000CEB810C4349DCF80D
:105730000820624567D0516821F003018B4202D2F4
:1057400092689445F7D1D368E360A260D4609C600E
:105750003046BDE8F04106F067BB55F8085C641BB5
:105760000CF10808A06840452B443FD0E568C560AF
:10577000A860C0E7BDE8F081DB080CEBC302DCF8F1
:1057800004009168E2609B10012505FA03F31843B9
:10579000A160CCF804009460CC60D9E7284DA84201
:1057A000B1D143F00102CCF81440CCF81040E060D5
:1057B000A0606260E350CBE7FF18CB0707D455F831
:1057C000083CE41AFF18A268E368D3609A601D4B96
:1057D000CCF808401B6847F001029F426260B7D3D3
:1057E000194B30461968FFF71DFFB1E7012182E729
:1057F00002F15B004100142A96D9542A0CD8180BE8
:105800006E30410090E74B688010012505FA00F0EA
:1058100003434B60134697E7B2F5AA7F03D8D80B32
:105820007730410080E740F254518A4203D8980C07
:105830007C30410078E7FC217E2075E7780200107B
:105840008002001084060010B40800102DE9F04F0B
:10585000936883B0914680460C46002B2CD08889F3
:1058600000F008031BB2002B2AD00B69002B27D0B5
:1058700000F002031BB2D9F80050002B2FD04FF0DC
:10588000000A4FF47F4B5746C7F6FF7B5F4534BF96
:105890003B465B4652464046002F5AD0216AA66AD4
:1058A000B04700286BDDD9F808301B1A82443F1A34
:1058B000C9F80830002BE9D1002003B0BDE8F08F13
:1058C00040462146FEF7B6FB002840F04D81A089F6
:1058D000D9F8005000F002031BB2002BCFD110F01A
:1058E000010B53D15E46002E2ED000F4007212B28E
:1058F000D4F808A00146002A00F083805645D4461B
:10590000C0F0BB8001F49061002940F0C98020689C
:10591000374662465946CDF800C0FBF789FADDF8F4
:1059200000C0A1682268CAEB01036244A360226040
:10593000D9F80830DB1BBB44F61BC9F80830002B34
:10594000BAD0A089002ED0D1D5F800B06E68083545
:10595000C9E7D5F800A06F68083597E75946324681
:10596000CDF800C0FBF764FA23689B19236040461A
:105970002146FFF72FFDDDF800C000282BD0A389BA
:1059800043F04003A3814FF0FF3096E79A469C46D0
:105990009B461F46002F2DD0BCF1000F72D020680F
:1059A0002269A668D4F814E0BA4534BF53463B4692
:1059B000904202D97644B342D0DC734541DBA66AFB
:1059C000216ACDF800C040465A467346B047061ECD
:1059D000DDF800C0D3DDBAEB060A46D0D9F80830AE
:1059E0009B1BB344BF1BC9F80830002B3FF464AFC6
:1059F000002FD1D1D5F800B06F684FF0000C0835FA
:105A0000C8E720682269904202D86769BE427ED208
:105A1000564534BF374657463A465946FBF708FACB
:105A2000A3682268DB1BD219A3602260002B7FF4DD
:105A30007FAF40462146FFF7CDFC00283FF478AF0A
:105A40009DE71A4659460193CDF800C0FBF7F0F9DF
:105A5000019BA1682268DDF800C01E46C91AD21851
:105A6000BAEB060AA1602260B8D140462146FFF792
:105A7000B1FC002883D1D446B0E72068B24637464F
:105A8000B44646E758460A213A46FBF70BF9002888
:105A900065D000F1010ACBEB0A0A4FF0010C7EE75A
:105AA0002169236867695B1A07EB470707EBD7771C
:105AB00003F1010E7F10B644774500F480603A464A
:105AC00000B23CBF77463A46002833D040461146E4
:105AD0000193FAF741FE019B8246002847D01A46FF
